:020000040800F2
:1000000060100020690500086B2C000855050008E9
:1000100000000000000000000000000000000000E0
:100020000000000000000000000000008106000841
:10003000000000000000000009060008AD180008DC
:10004000E5070008E5070008E5070008E5070008E0
:10005000E5070008E5070008E5070008E5070008D0
:10006000E5070008E5070008E5070008E5070008C0
:10007000E5070008E5070008E5070008E5070008B0
:10008000E5070008E5070008E5070008E5070008A0
:10009000E5070008E5070008E5070008E507000890
:1000A000E5070008E5070008E5070008E507000880
:0C00B000E5070008E5070008E507000868
:1000BC0002B4714649084900095C49008E4402BCEF
:1000CC007047C046002934D00123002210B4884266
:1000DC002CD301242407A14204D2814202D209016B
:1000EC001B01F8E7E400A14204D2814202D249008C
:1000FC005B00F8E7884201D3401A1A434C08A0422F
:10010C0002D3001B5C0822438C08A04202D3001BC4
:10011C009C082243CC08A04202D3001BDC082243DB
:10012C00002803D01B0901D00909E3E7100010BC1B
:10013C00704701B5002000F00BF802BD0029F8D083
:10014C0003B5FFF7C1FF0EBC4243891A1847C046DE
:10015C007047C0461C2101231B04984201D3000C9C
:10016C0010391B0A984201D3000A08391B0998421E
:10017C0001D30009043902A2105C40187047C04634
:10018C000403020201010101000000000000000054
:10019C00002B11D1002A0FD1002900D1002802D048
:1001AC000021C943080007B4024802A1401802907C
:1001BC0003BDC0469DFFFFFF03B4684601B502981E
:1001CC0000F02AF8019B9E4602B00CBC7047C0465A
:1001DC00D0400B00D1409C46203AD34018435242A9
:1001EC0063469340184370479140030090409C46EF
:1001FC00203A9340194352426346D3401943704707
:10020C0010B5002903D1FFF7A5FF203002E008004C
:10021C00FFF7A0FF10BDC046F0B506000F0015009B
:10022C001C0085B08B4263D801D1824260D821007A
:10023C002800FFF7E5FF390000903000FFF7E0FFE2
:10024C00009B21001B1A1A0028000393FFF7CCFF18
:10025C0000900191B94245D801D1B04242D8009BDF
:10026C00019C01200021039AF61AA741FFF7BCFF5D
:10027C0004000D00039B002B2BD0019B009ADB0785
:10028C0050081843019B5908039B9C46B9422CD833
:10029C0001D1B04229D832003B00121A8B41012601
:1002AC0092185B410027B6185F4101235B429C44C6
:1002BC006346002BEAD130003900039AFFF788FF20
:1002CC00039AA4197D4106000F00FFF78DFF241A35
:1002DC008D410A9B002B01D01E605F60200029001D
:1002EC0005B0F0BD00240025C4E7B6197F41DCE75A
:1002FC0000240025EDE7000070B50E4C200002F044
:10030C001AFF002815D0802521692D020A68A368E0
:10031C002A430A6020000F211B68074A9847A368EC
:10032C00290020005B6998470021044802F02EF850
:10033C00F5E770BD44350008010006008813000085
:10034C0010B5024B1B68984710BDC046000000203A
:10035C0030B585B004000D0010220021684602F073
:10036C00BAFF6A4602239370044B2A0021006846A8
:10037C00019302F08DF905B030BDC0464D03000865
:10038C00014B18607047C04600000020F7B5040010
:10039C000D001E00019202F017F8030003F046F85E
:1003AC00054F32003B5001992800A04703F03EF85E
:1003BC00385800F0EDF8C0460800000001210A4B47
:1003CC000A4A82B01A600A4B00201A6C0A431A645B
:1003DC001B6C084A0B400193019BC0231168DB0086
:1003EC000B43136002B07047600000200024F4003F
:1003FC0000100240000001400221034A0020536813
:10040C008B4353607047C04600580140014B03605A
:10041C0000207047E436000830BFFDE7F7B5134BFA
:10042C00134D019058190E00290001380093FFF765
:10043C0049FE104F104C4543381921000138FFF785
:10044C0041FE44436419361B009A30000B4902F0FC
:10045C0039FF70193A00002102F03DFF2000019B8A
:10046C00083EA4331E600830FEBDC04600000000EC
:10047C00010000000400000004000000E436000845
:10048C00044B99685869884202D00349034A0A60B0
:10049C00704700002803002004ED00E0000000106D
:1004AC0070B5224B0C005B6888B0DB05DB0D62B6C7
:1004BC00BFF36F8F0025160E2900FF2E09D1F33ED6
:1004CC001640082E05D001000135120701D5210078
:1004DC0000250024032B14D18B69154A934202D3B7
:1004EC00144A934206D3144A0024934209D3134A64
:1004FC00934206D2023B1A88114B00249A4200D137
:10050C000C682022684602F0DDFE079B002D0AD005
:10051C00DA0502D10B4A134307936946200002F017
:10052C0094FB08B070BD5B0A5B02F5E700ED00E0E0
:10053C00BC0000084434000800000020000000202B
:10054C0002DF0000FF010000EFF30880EFF30981E8
:10055C0001B57246FFF7A4FF01BDC0460020094952
:10056C00087072B608480949401880F30988EFF3FF
:10057C0014800221084380F31488BFF36F8F00F0BE
:10058C00C1F800005D03002060030020000800009B
:10059C0010B50A4B9B6883420DD1EFF30583002BFA
:1005AC0009D08022064B520559680A435A605A6A90
:1005BC0004490A405A6202F03DFE10BD2803002097
:1005CC0000ED00E0FF7FFFFF0A4A93681900A83195
:1005DC0008600B21AC3349421960802306495B0546
:1005EC00486803434B6062B6BFF36F8F9368AC33BC
:1005FC00186870472803002000ED00E016498A684F
:10060C0016481044EFF3098CF0C043464C4655464F
:10061C005E466746F8C072B6114F124E4A698A6040
:10062C003E60114C14192068104C2060104C1419A9
:10063C00206800232360002800D162B6074C1019F3
:10064C001030F8C89846A146AA46B346BC46243892
:10065C00F0C88CF309887047280300203000000094
:10066C0004ED00E000000008A400000028020020B7
:10067C00A800000004207146014202D0EFF309806B
:10068C0001D1EFF308808169023909780229FFD082
:10069C0001B502F0DEFA01BD43B2000605D41F22FB
:1006AC001A4001239340014A1360704700E100E0B7
:1006BC0030B5FF2503220B00290040B20240D200C6
:1006CC0091409B012B40C943934000280ADBC02476
:1006DC000A4A800880008018A40002590A4013437B
:1006EC00035130BD0F2210400838054A80088000A5
:1006FC008018C26911401943C161F2E700E100E0C2
:10070C0000ED00E0FF22084B10B59343074A9360BD
:10071C00BFF34F8FBFF36F8F01F056FA01F05AFE03
:10072C0000F042F801F09AFA0000000800ED00E039
:10073C0010B5203A1360029B01245360039B0749B8
:10074C009360049BA143D36080235B04D36100239B
:10075C0091610265A830036010BDC0469903000882
:10076C00084B9860A430084B00681860101C81F38B
:10077C000988002162B6BFF36F8F00220023FFF7B8
:10078C0005FEC04628030020280200200149102243
:10079C000A60704710ED00E0BFF34F8F30BF62B6B8
:1007AC00BFF36F8F7047C046F0B5C02400220326FC
:1007BC00FF25A40010002F003040C00087400549E1
:1007CC0093089B005B1819590132B94319511F2A20
:1007DC00F0D1F0BD00E100E001B5EFF30580054973
:1007EC00401AC0000449014409C9984709BC9E46F7
:1007FC000249084710000000A83500088D040008C5
:10080C0010B50121024B034A034800F065F810BDF6
:10081C000040022000000020E436000810B5FF2440
:10082C000300064A90600868A04318431023034352
:10083C00D360012389680B43136110BD90ED00E078
:10084C00F0B5140005000026FF2789B00291039330
:10085C00029B9E4228DA6868002820D0039B002B5C
:10086C0007D0431E03421DD1FF281BD92A681A4208
:10087C0018D12B683C400593AB68019302F0FCF94E
:10088C00019B18430A4B07901B681B0A3B40013B1A
:10089C009C4207D8200005A9FFF7C0FF01340136A0
:1008AC000C35D5E716246442200009B0F0BDC046D3
:1008BC0090ED00E00522034B5A60BFF34F8FBFF35E
:1008CC006F8F704790ED00E0BFF35F8F0022014BFC
:1008DC005A60704790ED00E010B5034C012322786C
:1008EC00FFF7AEFF207010BD5C030020F0B54D4F3C
:1008FC004D4E3B6835681B0ADBB287B09D4200D970
:10090C008DE0FFF7E1FF0024A54219D1474E02A864
:10091C003570FFF77BFD002301900093009A019B3B
:10092C00934216D1FF21002032783B681B0A0B4002
:10093C009A4200DA6FE0FFF7BDFF002007B0F0BD70
:10094C000C23634371682000C918FFF767FF01345B
:10095C00DAE78021009B09041A01029B9B18DA68D4
:10096C00120D12058A4247D00ED8802189038A4283
:10097C0034D08021C9038A4237D0802149038A426E
:10098C0012D016204042D9E7802149048A423BD03C
:10099C00802189048A42F4D198685D681C6802F051
:1009AC006BF98023DB0205E098685D681C6802F037
:1009BC0063F91F4B18430590039504943B683078FA
:1009CC001B0ADBB2013B9842DBD803A9FFF726FFD9
:1009DC00337801333370009B01339EE798685D6870
:1009EC001C6802F049F9134BE4E798685D681C68D1
:1009FC0002F042F9104BDDE798685D681C6802F064
:100A0C003BF982235B04D5E798685D681C6802F0AB
:100A1C0033F98823F6E7BA603861013285E70120A3
:100A2C00B0E7C04690ED00E0F03600085C03002013
:100A3C0000000B11000008110000020710B5024B5A
:100A4C001B689847002010BD2C020020034B044A61
:100A5C001860022391780B43937070472C0200208E
:100A6C0004000020072310B50449054A99430548A2
:100A7C00521A02F0A2F8002010BDC04667100020E8
:100A8C00004002203002002070B505000024012631
:100A9C00287800191F2814DC330083400C4AD168D5
:100AAC0019408B4203D0116919408B4209D1D36094
:100ABC001361084BC100CA58002A02D05B18596850
:100ACC00904701346B78E4B2A342E1D270BDC046CA
:100ADC00001802403C0200200022052010B50C4CEE
:100AEC00110020706070FFF7E3FD0022062011005A
:100AFC00A070E070FFF7DCFD0C220721054802F026
:100B0C00EAFB002207201100FFF7D2FD002010BDE8
:100B1C006C0000207000002010B5064B0200185627
:100B2C00012393400449CC6F2343CB67FFF7B4FDFB
:100B3C0010BDC0466C000020041802401F2805DCC4
:100B4C00012282400249CB6F9343CB677047C0466A
:100B5C000418024010B50400080003290CD8012326
:100B6C00104AFFF7A5FA020A0E16A3401168994322
:100B7C00116051689943516010BDA340116819432D
:100B8C00F6E7A3405168194351601168994311600D
:100B9C00F2E7A34011681943116051680B4353608D
:100BAC00EAE7C0460018024030B5094BC000C458F3
:100BBC008C4203D11D186D68954204D0002C04D1D1
:100BCC0019501B185A60002030BD10204042FBE722
:100BDC003C0200200022034BC000C2501B185A607C
:100BEC007047C0463C020020024B18684005C00FFD
:100BFC007047C046001002400B681A00343A0C2AA9
:100C0C0007D80020044A49689B181A680A431A60DE
:100C1C00704786204042FBE7001002400B681A0028
:100C2C00343A0C2A07D80020044A49689B181A68E1
:100C3C008A431A60704786204042FBE7001002404E
:100C4C00F0B50A680B2A23D8134BD340DB071FD50A
:100C5C004B68FF2B1AD0FF221C0007261F270F48BA
:100C6C0014402418580B1B0A3B4030409840256810
:100C7C0085432560496809480A400B0C090A334032
:100C8C0039408B4012181068034313600020F0BDEC
:100C9C0086204042FBE7C0463A0F0000001002409D
:100CAC0010B5194B086814001B68082815D00B28C0
:100CBC000CD8002811D001380A280ED8FFF7F8F903
:100CCC0012151C1F2115150D171717003C2809D0DC
:100CDC0006D804223438904304D08620404203E0E6
:100CEC004028FAD10020236010BD0023FAE700F061
:100CFC00DDF8C3005B08F5E7FA23DB01F2E7034BF1
:100D0C00F0E7034BEEE7C046600000200024F4003F
:100D1C00006CDC02F7B500F0E1F800F091FE1F2149
:100D2C004A4C4B4AA3684B4D1B051B0F9B009B5811
:100D3C000B40D840136801900B401D41A84202D2D1
:100D4C00280000F0C1FEFFF74FFF012808D08023D8
:100D5C0022685B0013432360FFF746FF0128FBD199
:100D6C0023683D4A134023600123226E13432366FC
:100D7C000223226E1A42FCD080232268DB03134329
:100D8C00236080231B0422681A42FCD03822A368FB
:100D9C001340102B18D1FFF727FF012808D0802310
:100DAC0022685B0013432360FFF71EFF0128FBD171
:100DBC000722A3689343A3603823A2681A42FCD18C
:100DCC00A368264A1340A3602368254A8027134052
:100DDC002360E268234B80261A4080239B02134336
:100DEC00E3608023E2685B021343E360E3681E4A1E
:100DFC00BF0413403B43E360E36876043343E36092
:100E0C0000F058F823681E43266023683B42FCD050
:100E1C00A368124A1340A3600723A2689A43053BB8
:100E2C0013433822A360A3681340102BFBD1019B02
:100E3C00AB4202D3280000F047FE0C4B054A0020C1
:100E4C001A60A3680A4A1340A360FEBD001002405A
:100E5C00D83800080090D003FFC7FFFFFFF0FFFF5A
:100E6C00FFFFFFFEFFFFC1FFFFFFFFF1600000204F
:100E7C00FF8FFFFF0B681A00343A0C2A08D8094A76
:100E8C0048689B181B68984343425841013070478F
:100E9C00012210000B2BFAD80348D84010408018C0
:100EAC00F5E7C046001002403A0F000000487047BA
:100EBC000024F400064B074AD9681140064A0A433D
:100ECC00DA608022D96852050A43DA607047C0465E
:100EDC00001002408C80FF1F0208002080210F4B65
:100EEC004905DA6B82B00A43DA63DA6B0A40802177
:100EFC000192019ADA6B49020A43DA634022DB6BF6
:100F0C000B400093009B064B19680A431A60202281
:100F1C0019680A431A6002B07047C04600100240BC
:100F2C00006C004010B5084802F005F9002808D004
:100F3C00064C2000FFF78AFD2000FFF721FA002065
:100F4C0010BD13204042FBE7803500085D0F000800
:100F5C0070B50400074D0A2804D1AB680D21280098
:100F6C005B689847AB6828005B68E1B29847200043
:100F7C0070BDC0468035000870B503690400586028
:100F8C00094D280002F0D7F8002809D06168AB6839
:100F9C0028001B680C319847002800DD002070BD2C
:100FAC0013204042FBE7C046CC340008F8B51D00C6
:100FBC0080230C00466811009B030269994220D1E2
:100FCC00C022E30452031340A210134303221A401D
:100FDC002A4918329200525807211B0C99400A409A
:100FEC00DA401300B2689A4209D12000FFF7A6FD3F
:100FFC002000FFF7EFFD00212000FFF7ABFD0020E4
:10100C00F8BD8023DB03994232D020001C49FFF746
:10101C00CBFD00282FD1C022E30452031340A210B1
:10102C00B66813431A0007271B0C9E409F403300E1
:10103C0003301249024092005218116EB9430B430F
:10104C00136680230121DB049D420AD0C0230100DA
:10105C00DB049D4205D0FE231B06ED186B425D415F
:10106C0069002000FFF776FD2000FFF755FDC6E76D
:10107C0086204042C4E71020FBE7C046001802401F
:10108C005B2E0008F7B504000025C9004318019336
:10109C00019B9C4201D1002034E01F2710222368C1
:1010AC001F40134216D1202562681543FF215A0AAE
:1010BC0012010A405B09F0390B40134300931109EC
:1010CC00A02A20D8114B8900CE58002E0AD113200B
:1010DC00404217E0102F03D0112FE7D16568E5E7E8
:1010EC003025E3E7300002F026F80028EFD00F237C
:1010FC0000992A00194030003B0001F0C2FE083470
:10110C000028C5DAFEBD1620E2E7C046AC37000861
:10111C0010B542681168EFF31080012383F3108837
:10112C008C6823438B6080F310880D4913688B42C5
:10113C0005D00C498B4202D00B498B4203D1402184
:10114C005868014359601268EFF31081012383F34F
:10115C0010881068FF330343136081F3108810BDAF
:10116C0000380140004400400048004010B542687F
:10117C001168EFF31084012080F310888B6883438F
:10118C008B6084F310880D4913688B4205D00C4991
:10119C008B4202D00B498B4203D1402059688143CA
:1011AC0059601268EFF31081012383F3108806480D
:1011BC0013680340136081F3108810BD00380140A0
:1011CC000044004000480040FFFEFFFF37B50369B4
:1011DC00456818680C008368E968DB68002B13D03D
:1011EC0001AA984700280FDB2A68084913680B40AE
:1011FC0013602D68019B002C06D060082100C018DC
:10120C00FEF760FF80B2E86037BDC046FF7FFFFF8E
:10121C00F7B50C00036941685D682379012B13D085
:10122C009A1E56427241920200926679022E0ED894
:10123C00464F7600F75BA679022E0BD0042E31D0E8
:10124C005E1EB3411B0308E0C022D200ECE78027EE
:10125C00BF01F0E75E4273411B07E6790196002659
:10126C00B446019E012E02D1C026B600B4460968D0
:10127C00A5421AD10C68364E009A344022431343CF
:10128C000B604B68334A13403B434B604368324915
:10129C001A6893680B4061460B4393602968FFF70B
:1012AC0095FFF7BD80235B01D7E7C0220E68D20003
:1012BC001640009AB24205D00E68284A1640009A91
:1012CC0016430E60C0264268B60111684A68324067
:1012DC00974204D04A681F4E32403A434A604268F3
:1012EC001F4E11680A683240934204D00A681D4EA2
:1012FC00324013430B60C021436889001A6893681D
:10130C000B409C4505D0936813490B4061460B4339
:10131C00936080224368D2011B689968114206D001
:10132C00019A032A09D09A680F490A4004E00199EE
:10133C00032902D199680A439A6021682B68994263
:10134C00AFD0FFF743FF23682B60AAE730390008C2
:10135C00FFE9FFEFFFCFFFFFFFFCFFFFFFF9FFFFF0
:10136C0000100010FFEFFFEFFFBFFFFFF7B5050008
:10137C00466804696248206001F0DDFE002802D155
:10138C0013204042B8E02068F16883681B689847D6
:10139C00002800DAB0E00021306A01AA01F086FDD5
:1013AC00002800DAA8E0019B002219791868FFF7E1
:1013BC0069FE002800DA9FE001216C682B69226825
:1013CC005F6813688B431360606801F0B4FE0028FB
:1013DC00D6D06068A1688368DB68002B00D0984782
:1013EC002268EFF31081012383F310880C2013681B
:1013FC000343136081F3108839002800FFF708FFBE
:10140C00237D002B04D00823226891680B43936042
:10141C00637D002B05D080212268090253680B43A1
:10142C005360A37D002B05D08021226849025368AC
:10143C000B435360E37D002B05D080212268890289
:10144C0053680B435360227E2368002A37D02D4A01
:10145C00934214D02C4A934211D02C4A93420ED072
:10146C002B4A93420BD02B4A934208D02A4A9342E0
:10147C0005D02A4A934202D0294A93423DD16B6847
:10148C0028481A6880239168DB010B43936021681C
:10149C00637E0A685B05024013430B602168A37EE0
:1014AC000A6821481B04024013430B60E37E002BA7
:1014BC0005D080212268090293680B439360237F37
:1014CC00002B05D0802322689B0511680B43136009
:1014DC000123226811680B43136080222368920356
:1014EC00D9691142FCD08022D203D9691142FCD0B7
:1014FC002800736A98470020FEBD162041E7C046BD
:10150C00CC34000800380140004400400048004042
:10151C00004C004000500040003C01400080004066
:10152C0000840040FFFF1FFCFFFFE0FFF7B50369DD
:10153C0000905B68476801934B790A790C009C46D4
:10154C008879012A52D1022B6AD9C0218023050047
:10155C00C9009B01022800D18EE0042800D172E062
:10156C000020824205D0033A012A00D86EE0802088
:10157C004001802600227601B34200D070E0624523
:10158C0064D101F0DDFCA84260D1E379002B1BD0C3
:10159C00012B00D076E03B683C4A934214D03C4A85
:1015AC00934211D03B4A93420ED03B4A93420BD00C
:1015BC003A4A934208D03A4A934205D0394A934268
:1015CC0002D0394A934241D101253A68210013686F
:1015DC000098AB431360FFF71BFE00203B681A68B2
:1015EC0015431D60019B06CC06C3FEBD022A09D122
:1015FC00022B24D980210500C900022829D0802380
:10160C009B01AAE7022B1CD9050000210228F6D168
:10161C000021002A1DD18020110040050322AEE7D5
:10162C00C021C9006546214B6D00EB5A050002280C
:10163C0000D092E7002A1FD18020400599E7802135
:10164C00EFE70021EEE7002A00D190E78620404228
:10165C00CBE7033A012AF9D98023002002259B010C
:10166C00C0260222B601B34200D188E7013A002B12
:10167C0000D184E7023282E7033A012AE6D9022537
:10168C00002076E7032B00D185E7DFE70038014027
:10169C000044004000480040004C00400050004016
:1016AC00003C0140008000400084004030390008BC
:1016BC0070B50369C0225B680C001B68D2000B601C
:1016CC008021436805001B68C9001B681340022277
:1016DC008B4204D01C4A9B185A425341DAB2C021A7
:1016EC00802022716B6889011B6800225B684001B5
:1016FC000B40834206D002328B4203D0013A002BBE
:10170C0000D0023262716B681B6818681968C023BC
:10171C00DB0019400D4B184001F012FCC022A071E7
:10172C006B6892001B689B681340094A9B185A42CD
:10173C005341DBB2E3716A6812689268520400D5B7
:10174C0003230020E37170BD00FAFFFF00100010AE
:10175C0000FDFFFFC023F7B5466801913768DB0039
:10176C003868396815001940124B184001F0E8FB35
:10177C0004281CD08022FB690020134216D0EFF302
:10178C00108772B6030018009D420ADD802432686F
:10179C00D169214205D00199C85C01339062DBB25A
:1017AC00F1E7002F02D162B6BFF36F8FFEBD86202A
:1017BC004042FBE700100010F8B544680D002368A8
:1017CC00160018681968C023DB0019400E4B18402E
:1017DC0001F0B6FB0023042804D186204042F8BD5A
:1017EC0008220A6218009E42F9DD20222168CF6986
:1017FC001742F4D0496A183AE95421680133C86990
:10180C00DBB21042ECD1EDE70010001070B5802572
:10181C001049114B8C681B680E6810488A686D0261
:10182C00002C08D1002A11D11A002E4209D10068CF
:10183C001818801A70BD002A0AD02E4201D1A2427B
:10184C00F5D90468E41804600968F0E71C00F4E7B3
:10185C001A00F2E710E000E0200300201C03002037
:10186C000A4A0020136A1B021B0A1362C822084B87
:10187C0052011A60074B084A1860084B5A6007223D
:10188C00986019680A431A607047C04600ED00E082
:10189C00200300201C030020FF18000010E000E0D3
:1018AC00F8B50024FFF7B2FF104E23003168104D3D
:1018BC000A00286869688018594128606960C82145
:1018CC000C4D346049012E686F68801BFEF7FAFBE3
:1018DC00C8214901414323000A0092197B412A6027
:1018EC006B6000F049FEFEF7CBFDF8BD1C03002039
:1018FC00A000002098000020F0B53B4B3B4D87B07A
:10190C00002960D0421C08D101212A688A432A6030
:10191C00FF2212061A6007B0F0BD1B680393002368
:10192C000293012854DCEFF3108372B60593FFF792
:10193C006DFF00221100AB6804932D4B1E685F688D
:10194C0036184F413000390018605960294B009609
:10195C0001971A60284B1C68009B1B1B93423EDBB3
:10196C00C82702987F017843244A39008018C01890
:10197C00FEF7A8FB009B7843E41A80232018DB00B9
:10198C00984200D218001E4B984200D91800164BF2
:10199C00174918600138AB6868600020A860049A89
:1019AC00D41A9A421ED2039D621903000C684D682A
:1019BC0012196B410A604B60059B002BABD162B6D0
:1019CC00BFF36F8FA7E71B680393431CA7D10D4888
:1019DC000D4B984200DD1800431E0293A3E78020B4
:1019EC00C000D4E72200E0E72003002010E000E074
:1019FC00A00000201C03002098000020FF1800000D
:101A0C0000DCFF003C0A00003D0A000070B5EFF35B
:101A1C00108572B6084A094B14681B68E41AFFF764
:101A2C00F5FE0019002D02D162B6BFF36F8FC821ED
:101A3C004901FEF747FB70BDA00000209800002074
:101A4C00382370B51D4CA2681A4205D123681C4876
:101A5C009B045B0FD84070BDA2681A40082A27D09F
:101A6C00A2681A40102A17D1E368E168DB43E568E5
:101A7C004906490F6F322D0A013115409B0709D1D8
:101A8C001048FEF71FFBE1686843490F0131FEF770
:101A9C0019FBE0E70A48F4E7A2681A40202A09D0AB
:101AAC00A26800201340182BD5D1FA20C001D2E730
:101ABC000448D0E780200002CDE7C0460010024069
:101ACC000024F40000127A000F4B411E020001208A
:101ADC00994217D80D4902238A4203D80C4B9342E2
:101AEC009B415B4207200B490A6882431A430A60F8
:101AFC000A680240934201D00A680240981A421EBA
:101B0C009041C0B27047C046FF8FD003006CDC021E
:101B1C0000366E010020024070B5EFF3108572B6EE
:101B2C00064B9C6801F018FB002D02D162B6BFF386
:101B3C006F8F2000FEF72CFD70BDC04628030020DF
:101B4C00F7B50127124E830001309C598300019395
:101B5C00019BF358A34200D8F7BD65682368002D9C
:101B6C0013D0002B0BD028009847002807D0C217A1
:101B7C008018EB685040FF2800DDFF201870EA68E1
:101B8C0053783B4353700834E2E79847FBE7C04671
:101B9C001839000810B50124094B03201C70FFF7FD
:101BAC00CFFF00F06DFD0420FFF7CAFF00F032F903
:101BBC00FEF7A2FB034A137BA343137310BDC0466D
:101BCC005D0300205801002010B5034A0348002192
:101BDC00121A01F0C4FA10BD600300209800002016
:101BEC00F0B5B027040047430102154887B0091827
:101BFC001448142505900F20039000200126802204
:101C0C006543114B029001901048FF182D18B240FB
:101C1C0038000F4B0496009500F098F804227B7B5B
:101C2C002C7493437B73A4190A4BE402E418EF6001
:101C3C006C600948310001F038FB07B0F0BDC046BC
:101C4C00600B0020FB390008A800002028030020AE
:101C5C007B3200086003002024030020F0B5002034
:101C6C00B3B0FFF76DFF244B83F308882349244B53
:101C7C000A6A00241A40C0231B0413430B6200F0B1
:101C8C00F4FFFEF783FDFEF731FEFEF7B9FD0222ED
:101C9C001C4E06ABFF329A81B3602B942C942E947D
:101CAC0001F048FA0120FFF74BFF0220FFF748FF35
:101CBC0000F0E0FA144D154B756180220593012359
:101CCC00134E14490493D200330028000394029459
:101CDC000194009400F03AF8042207006B7B280072
:101CEC0093436B7301F056FA2000FFF779FF320033
:101CFC0039002800FEF734FD600B002000ED00E0F9
:101D0C00FFFF00FF2803002058010020003A0008C4
:101D1C00A11B0008600C0020EFF3108172B60A4A78
:101D2C00136A834208D11B6F1362002902D162B679
:101D3C00BFF36F8F70471300002BF6D01A6F8242DF
:101D4C00F9D1026F1A67F0E728030020F0B589B0CB
:101D5C000793030058338365C365129B07270373EE
:101D6C0004230025040043730732119BBA43837389
:101D7C008B180E0085601900C5738561C5610592CD
:101D8C000693FEF74BFB2300059AC0199433B84316
:101D9C001E605A609860069B31001F1A109B3A0017
:101DAC0002930F9B200001930E9B0093079BFEF761
:101DBC00BFFC079B656523660E9B63660F9BA36642
:101DCC00109BE366EFF3108372B6114D2A6A2C62F6
:101DDC002267002B02D162B6BFF36F8F2000139BDA
:101DEC007430002B11D01F22190001F07CFA230053
:101DFC00002293331A70AB68002B01D0A0331B6800
:101E0C003800A034236009B0F0BD139B0370F2E7D7
:101E1C002803002070B51B4C86B026001A4DAC422E
:101E2C0007D300F001FAAE4219D300F00DFA06B058
:101E3C0070BD636A0593236A0493E3690393A369F2
:101E4C0002936369019323690093E368A268616854
:101E5C002068FFF77BFF23685C653034DEE7B26AED
:101E6C00F36A511C01D1591C05D01100306819437B
:101E7C0003D100F0A9F93036D5E70449183000F049
:101E8C000DFBF8E7A0360008A03600082732000842
:101E9C00C289030000207F2A11D80A4A1068002842
:101EAC000DD00E21084A595612680020914206DBCB
:101EBC005A7BD20603D10548181A431E98410123B8
:101ECC00184070475403002050030020A800002045
:101EDC000121044B044AC01A044BC0104343D15493
:101EEC007047C046080200205E030020ABAAAAAAD5
:101EFC0070B518240C4B05001E7C0C4B7443E41875
:101F0C00200001F0BBF90022094B28009A55FFF77D
:101F1C00BFFF002807D0074B20001A680649013A7A
:101F2C00D31700F0BBFA70BD280300200802002074
:101F3C005E03002054030020DD1E000870B50E4D1A
:101F4C000E4BAC699C4201D0002C00D1EC68AB6804
:101F5C00002808D15A7BD20605D1A269002A02D1E9
:101F6C00DA897F2A05D89C4202D02000FFF7C0FFF7
:101F7C0023006B6170BDC046280300204003002085
:101F8C000D2270B582560400437B002A04DA7F22AE
:101F9C001340437301F0EBF88023627B5B421343E5
:101FAC00134A637393691348834200D10023D169A8
:101FBC00002B04D1206061600C60D4610CE00E2514
:101FCC000E2665579E57B5420DD0AE420BDD5968B3
:101FDC00236061600C605C609068001B4342584158
:101FEC00FFF7ACFF70BD9942E4D01B68E0E7C04638
:101FFC0028030020400300200D2370B5C356417BFD
:10200C00002B26DBCB0624D18369002B21D1802227
:10201C0052420A434273114A114C9169A14200D0B9
:10202C000B00D169002B04D1046041600860D061C1
:10203C000CE00E250E2645579E57B5420AD0AE42EF
:10204C0008DD5A6803604260106058600020FFF79A
:10205C0075FF70BD8B42E7D01B68E3E728030020B7
:10206C00400300200D2210B582560400437B002A49
:10207C0004DA7F221340437301F079F8034B98681C
:10208C00001B43425841FFF759FF10BD28030020A5
:10209C0070B504000D001026002A00D0083E637BAA
:1020AC0033420DD133436022190091430A0049B2E7
:1020BC00002911DB6273082E15D00120FFF73EFFBB
:1020CC001F4B9B68A34235D1EFF30583002B31D115
:1020DC002800FEF779FA70BD1F22134020006373AD
:1020EC0001F045F8E7E7A368002B02D0200001F0CF
:1020FC0046F82000183001F0C1F82300A66D5833C3
:10210C009E4201D0002E06D10120FFF717FF2000C0
:10211C00FFF702FED4E7300001F031F83000183040
:10212C0001F0ACF833000022AC3330001A60FFF73A
:10213C0063FFE2E7002DCED162B6BFF36F8FCAE723
:10214C002803002070B5EFF3108572B6104A114BBE
:10215C0094681868A04207D1FFF7CAFE002D02D17F
:10216C0062B6BFF36F8F70BD00211960127C0A4BF1
:10217C009B5C8B42F2D02000FFF78AFE0028EDD04A
:10218C00637BDB0602D12000FFF7FAFE2000E3E7B9
:10219C00280300204C0300205E03002010B500290A
:1021AC000AD1EFF30580002807D1064B9A685B69CA
:1021BC009A4202D0FEF708FA10BD62B6BFF36F8FD9
:1021CC00FAE7C0462803002010B5EFF3108472B66E
:1021DC000422437B134205D1002C02D162B6BFF31B
:1021EC006F8F10BD93434373FFF706FF2100024826
:1021FC00FFF7D4FFF5E7C0465F03002010B50028B9
:10220C000AD1EFF30580002807D1064B5A699B6869
:10221C009A4202D0FEF7D8F910BD62B6BFF36F8FA9
:10222C00FAE7C04628030020EFF3108172B6054B85
:10223C009A68D37B013BD373002902D162B6BFF3FA
:10224C006F8F70472803002010B5EFF3108472B61F
:10225C00074B00209A68D37B0133D373FFF76EFED4
:10226C00002C02D162B6BFF36F8F00F0DCFF10BD03
:10227C0028030020024B034A9A61DA617047C0467A
:10228C002803002040030020F8B5EFF3108572B648
:10229C007F22194CA068437B1340437300F067FF07
:1022AC008022A3685242597B14480A435A73A2698C
:1022BC00824200D10022E169002A04D118605960E1
:1022CC000B60E3610CE00E260E279E57D757BE42DB
:1022DC000DD0B7420BDD51681A6059600B6053602A
:1022EC000120FFF72BFE2800FEF76EF9F8BD8A429D
:1022FC00E4D01268E0E7C046280300204003002029
:10230C000300F7B50B4304000D00002B03D1FFF7BE
:10231C00BBFF0020FEBD4B1C2EDB4B1C01D1831CD4
:10232C002AD300F0BEFF2718EFF3108372B6144EB9
:10233C000193B068134B1860FFF794FEB06822004D
:10234C002B001149183000F0A9F81023B26801983D
:10235C00517B0B435373FEF737F900F0A2FF0023B8
:10236C003A0004001D00121BAB41AB4202DCD0D181
:10237C00AA42CED01000CDE702277F423F1BD3E705
:10238C00280300204C0300202732000810B50B0056
:10239C000C00421C07D1013305D10A4B986800F0A0
:1023AC0005FF200010BD2100FFF7AAFF002102004D
:1023BC00C3170920801859410A220023FDF7E8FEB3
:1023CC00F0E7C04628030020014B98687047C046D0
:1023DC002803002010B50648064A0749121A00F0D7
:1023EC00C2FE064A0649074800F0BDFE10BDC046B5
:1023FC0000000020920000203C3A00080000000081
:10240C003C3A000800000020002010B5034B1B686C
:10241C00834201D1FFF7FAFA10BDC04658030020E1
:10242C0070B50E4B1E689E4203D1FFF7EDFF0C48B2
:10243C0070BDFFF7E9FF002EF9D032697369040013
:10244C00C517121BAB41002BF1DC03D1802109060F
:10245C008A42ECD2D843C0171040E9E76400002050
:10246C00FFFFFF7F30B500280ED00B4B5B68984206
:10247C000AD00168002907D00A694B6904694569CB
:10248C0012196B410A614B610368426813605A6010
:10249C0000230360436030BD64000020F7B50400E6
:1024AC0016001F00531C01D17B1C57D0A160EFF309
:1024BC00108372B60193002F23DA7B1C01D1B31C5D
:1024CC001FD82B4B1868596802225242D317121A84
:1024DC008B41921BBB41002B04DC01D1002A01D1A2
:1024EC0001220023234F226163613D68BD4200D16C
:1024FC0000257E68002D0FD12760666034607C60FB
:10250C001CE0FFF781FF0122002392197B4106009A
:10251C00C71792197B41E5E72869696922696369E4
:10252C00994202DC1BD1904219D9801A99416B68EF
:10253C0028616961636025601C606C603B68BB420C
:10254C0006D09C4204D1FFF76BFF0021FFF7D4F9B2
:10255C00019B002B02D162B6BFF36F8FF7BD121A2D
:10256C008B4122616361B542C6D02D68C2E7C0467B
:10257C002002002064000020F0B585B0EFF310833A
:10258C0072B60293304B1860304B1C689C4200D1E1
:10259C0000242F4B2C4D0393186859682B689C46CC
:1025AC00002C39D062692669DB179A4202DC0AD109
:1025BC00664508D91F00226963696646921BBB41B8
:1025CC002261636128E0F31700960193009A019B46
:1025DC0080185941002300221D4F2261636138602D
:1025EC0079602000FFF73EFF029B002B02D162B600
:1025FC00BFF36F8F2000A3689847EFF3108372B678
:10260C000293114B1A68921B1A60104B94461C686B
:10261C009C42BED1386879686246D31712184B4178
:10262C00002403992C600A604B60FFF7F9FE21002F
:10263C00FFF762F9029BA34202D162B6BFF36F8F20
:10264C00FFF780FD05B0F0BD5803002064000020AA
:10265C002002002010B5EFF3108472B6FFF7D4FE01
:10266C0002000649C3170868496880185941002CB4
:10267C0002D162B6BFF36F8F10BDC046200200209E
:10268C0010B5024800F0D5FA10BDC046053A000856
:10269C00F0B5436893B003900893837815009B07BB
:1026AC0000D4F8E0002301930E78002E6AD0252E7A
:1026BC000DD04B1C0993019B013301930399089B8B
:1026CC00F0B29847002800DADFE00999ECE74E7881
:1026DC008B1C0993252EEED0002304211C00099A93
:1026EC000293079309921F2C2ED830002038102803
:1026FC000AD8FDF7DDFC1D0909270909091E09097E
:10270C00091B0925090918003300303B092B29D96D
:10271C002A2E32D108CD600622D4002B29DB2020B2
:10272C000793044305E001231C4302E002231C43EE
:10273C000C43099B01321E78002ED3D109922DE057
:10274C000823F1E71023EFE77F2C1ED83300303B32
:10275C00092BDDD8600605D50A20029E7043C318EC
:10276C000293E6E70A20079E7043C31807932023C1
:10277C00DAE75B4207932823D6E72E2E05D14023B8
:10278C001C42D1D0019813B0F0BD6C2E2DD027D89F
:10279C00682E31D06A2E32D04C2E30D0029B002BBA
:1027AC0003DA40239C4300230293202333431A0073
:1027BC00653A022A01D9612B24D10722EB1D9343E0
:1027CC0008331D00AB4F0292240753D5019A029B8C
:1027DC0016009C18B4424FD1079B029A9E1A82E1B4
:1027EC00742EA6D07A2EA4D0D8E780231C429BD07E
:1027FC0080208000044397E780235B00F6E7A0234A
:10280C009B0091E730006338122800D9E3E0FDF714
:10281C004FFC0A46E2E2E2E246E2E2E2E2E2F3DD09
:10282C00E2E211E2AD0004CD0CAB1A7001230CAF47
:10283C000293C9E780CD002F00D18F4F0299630618
:10284C0001D401214942380000F05EFD0290BBE743
:10285C0020200399089B9847002816DB013C029B1B
:10286C00A342F5D3079A019B944663441B1B019327
:10287C000794ABE7079CF2E7019B0399FB1A985D61
:10288C00089B984701360028A4DA039B9A78042306
:10289C001343039A937001235B42019372E723065F
:1028AC003FD5A30537D50722073595432F000CCF0D
:1028BC0004920593102325009D43059B002B3ADAC7
:1028CC000499059A00244B42944104930594802367
:1028DC00DB001D43ADB20CAC0A2304980599220011
:1028EC0000F01DFD041B6B0665D501232A009A43DD
:1028FC001300029AA24200DCA4E0002E00D19CE05E
:10290C001022290011400B91154200D09CE0029A34
:10291C001D0006921EE02F0008CF0493DB170593D1
:10292C00C8E72F0008CFE205F7D5A20501D55BB2A9
:10293C00F3E71BB2F1E7049B059A1343CBD1630673
:10294C00C9D5029B002BC6D111339C43029B250099
:10295C001C0006932A00494B1A400B921D4277D05B
:10296C00069B0133069300230B9371E010239C43C9
:10297C00063B9C46802322001A4006921C4242D001
:10298C0021008133FF3319401C4239D00722EB1D43
:10299C0093431F0003CB083703000B4346D125009C
:1029AC0016339D43630644D5029B002B41D117334C
:1029BC009C432500029C10232A001A400B921D42B6
:1029CC0056D0631C002E42D022003FE01023782604
:1029DC009C461C43CEE7782B04D110229B1B1A4338
:1029EC009446C7E725200399089B9847002800DAEE
:1029FC004BE7019B023360E6082300269C46B9E7AF
:102A0C002F0001CFC8E72F008022210008CF5200F1
:102A1C00180011401442BFD08022210092001140B6
:102A2C0098B21442B8D00699D8B2B5E706239C43A5
:102A3C0025000CAC6346220052E711239D43029BF8
:102A4C00069387E71D00B6E71D00029A931C0693B8
:102A5C002B072AD4EB0709D5079B069A02949342BD
:102A6C0004DD9B1A1B190293079B0693069B10E02F
:102A7C0006946FE7343A00082D3A0008060400006B
:102A8C0020200399089B9847002800DAFDE60A9B52
:102A9C0001330A930A9A079B9342F1DC069A019B35
:102AAC009B1A0A9A9B18019306920B9B002B25D01C
:102ABC0030200399089B9847002800DAE5E6019B33
:102ACC00002E12D101330193019E029B019A9B1897
:102ADC009B1BA34220DC2500002D25D13D00079B2C
:102AEC00069AA4199E1A019431E002330193F0B2B4
:102AFC000399089B98470028E6DAC6E6174B1D4257
:102B0C00E2D02020AB0700D50B306D0500D52D2071
:102B1C00019B01330193EBE730200399089B0136AD
:102B2C0098470028D1DAB0E60CAB013DE85C03997C
:102B3C00089B98470028CFDAA7E6019B2020013399
:102B4C0001930399089B9847002800DA9DE6019AA7
:102B5C00A3199B1A002BF0DCB7E5C0460604000055
:102B6C007047C9004018408840087047F8B50D0000
:102B7C000400FFF7F6FFFDF7EDFA1F21091A8A0092
:102B8C00A218EB0010691F1D0633E719E318AEB24B
:102B9C00002808D101308840E1680143E1601561EB
:102BAC003E801E80F8BDC1000431625A3A80D200CA
:102BBC00A2181880D6806652F4E70723F7B50027D1
:102BCC00043ACC1D89189C4399430B1BDE08046006
:102BDC00A660E7603000009301912425FDF7BAFA56
:102BEC0020222D1A121A200039009200103000F009
:102BFC0072FB0123AD000735ED086A001A436280B1
:102C0C00711BEA00A0184B0027804380009BA55243
:102C1C00E218019B578019800123F600A6197288CF
:102C2C002900134373802000FFF7A0FFF7BD00209D
:102C3C0070470FB407B504A901C90191FDF788FBD2
:102C4C0003B008BC04B01847704710B5FEF764FF1A
:102C5C0010BD10B501000068FEF75EFF10BD10B589
:102C6C00FDF7DAFBFDF70CFC10BD704710B5002129
:102C7C000120FFF7EAFF10BD030010B50820202B40
:102C8C000AD9802236301206934205D8581EFDF719
:102C9C0061FA1F23181A400010BD10B5FDF7CEFEC7
:102CAC00002010BD436800205B681B690B607047F7
:102CBC0043685B68586942401140414059610020AB
:102CCC007047436800205B68996170474368002037
:102CDC005B6899627047436800205A6853694B409F
:102CEC005361704710B503699868002821D0884259
:102CFC001BD10868DC689860A14200D1D860002024
:102D0C000860824206D09A680A60DA689960002AE4
:102D1C0000D1D960002010E0814206D10868206003
:102D2C00D8688142EBD1DC60E9E704000068002838
:102D3C00F2D1002AE7D11620404210BDF0B5012691
:102D4C00302485B0029343683000144001949409F8
:102D5C00884034408C405D68023685432C435C606F
:102D6C009C680327A44604008C406643F5430395F6
:102D7C00D5093D4065432F006546B5432F439F6001
:102D8C000327520A3A406243DD68B5432A43DA60AE
:102D9C00019A202A0DD1072915DC22008A408A408D
:102DAC000F215143186A8843029951430A00024388
:102DBC001A62019A196812095443039A11400C4380
:102DCC001C6005B0F0BD0F21000A40434043414355
:102DDC005A6A8A43029941430A435A62E9E713004B
:102DEC0070B59A0318D59A070FD55A072CD55022CF
:102DFC00DC060CD58024A400224345681C0319D59D
:102E0C0001248C406B689C610EE01022F0E79C065C
:102E1C00F3D58024E400EFE73022DC0304D5DA0696
:102E2C000FD49B06DB0F9A0240680023FFF786FF46
:102E3C00002070BD5B03F7D501248C406B689C624D
:102E4C00F2E780229200EFE786204042F1E770B56E
:102E5C000B008968002905D0012585405E680C6847
:102E6C00002900D170BD8B681A002A402B4202D079
:102E7C0030004B689847231E00D0236821001C00AB
:102E8C00EEE7F8B5050040681F000E001400FFF7D0
:102E9C0055FF112F06D101236A68B34052682405EF
:102EAC0002D593610020F8BD9362FBE730B503684F
:102EBC00136005790468ED006419A34202D3022063
:102ECC00404230BD5C798C4201D00833F0E70020E1
:102EDC00F7E74068CB0300681B0D1B181F2001404F
:102EEC001E3888401B680340591E8B41002013700C
:102EFC0070474268CB0312681B0D9B181F221140B0
:102F0C001E3A8A40186802431A60002070474268D3
:102F1C001F20CB0301401E38884012681B0D9B18E4
:102F2C001A6882431A600020704770B50D000400C7
:102F3C00FFF7DFFF29002000FFF7E9FF002070BD3D
:102F4C008022030052010800934207D080225205D0
:102F5C00934207D143425841013070474342584194
:102F6C000330FAE7434258410230F6E7012130B50D
:102F7C00426802241368D869DD69C00808400D4214
:102F8C0000D02043DD690421254200D00843DC69D0
:102F9C000C4201D0202108438021DC6949000C42FD
:102FAC0002D0082419622043C30702D508211368F4
:102FBC001962830702D5012113681962430702D5F0
:102FCC00022113681962830602D5136804221A625F
:102FDC0030BD43681A68EFF31081012383F3108826
:102FEC0010683F330343136081F3108870474368C4
:102FFC001A68EFF31081012383F3108840201368C3
:10300C008343136081F31088704743681A68EFF3A9
:10301C001081012383F3108810681F33034313605E
:10302C0081F31088704743681A68EFF3108101230D
:10303C0083F31088202013688343136081F3108876
:10304C00704743681B68D8698006C00F7047012021
:10305C00704703699960DA60704710B5026993682C
:10306C00002B01D0D168984710BD002210B511007B
:10307C001B20FDF71DFB1B20FDF70EFB10BD0022D6
:10308C0010B511001C20FDF713FB1C20FDF704FBF1
:10309C0010BD43681B68D8694006C00F7047436871
:1030AC0000201B68DA69120602D518684006C00FAA
:1030BC007047802230B543681C68E0691042FCD030
:1030CC00EFF3108072B61C68E569154205D1002833
:1030DC00F2D162B6BFF36F8FEEE7A162002800D089
:1030EC0030BD62B6BFF36F8FFAE7202243681B68CE
:1030FC00D969114203D019680120114206D1DA694D
:10310C000020520602D518684006C00F704710B553
:10311C00436808201A68D469044200D010621B6806
:10312C00DA69920603D500205B6A0B7010BD012092
:10313C004042FBE77047002809D00123C2680020F9
:10314C005178194202D010784242504118407047D1
:10315C00EFF3108372B6FEE710B5FFF7F9FF10B569
:10316C0000F0B9F810BD10B500F0ACF810BD036854
:10317C00426813605A60002303604360704710B5C7
:10318C000400FFF7F4FF0222637B93436373002375
:10319C00A36010BD10B5EFF3108472B6FEF72CFFD0
:1031AC00002C02D162B6BFF36F8F10BD10B50400B6
:1031BC00183000F063F8EFF3108172B6607B1023C7
:1031CC0002001A40184205D0002902D162B6BFF3A2
:1031DC006F8F10BD2000FEF75BFFFAE770B504009F
:1031EC000E00EFF3108572B62823427B1A420ED1E3
:1031FC008368002B01D0FFF7C2FF0422637B002EF3
:10320C0000D01422934320006373FEF7F5FE002DCB
:10321C0002D162B6BFF36F8F70BD10B501211838A3
:10322C00FFF7DCFF10BD10B5EFF3108072B6FEF7A0
:10323C00E5FF10BD10B5EFF3108172B60122037BD0
:10324C00134208D0002902D162B6BFF36F8F04205D
:10325C0062B602DF10BD437B1B0705D50029F9D1EF
:10326C0062B6BFF36F8FF5E7FEF712FFF2E710B50A
:10327C00EFF3108372B6FDF78FFAF9E710B5EFF3A1
:10328C00108472B60368002B08D0FFF7EBF800200F
:10329C00002C02D162B6BFF36F8F10BD16204042D6
:1032AC00F6E710B5FFF7D6F910BD0300EFF3108267
:1032BC0072B6006841181960002A02D162B6BFF3D9
:1032CC006F8F7047002310B59A4200D110BDCC5CB3
:1032DC00C4540133F8E703008218934200D17047BD
:1032EC0019700133F9E770B504000500002A06D007
:1032FC000B78013A01302B700131002BF5D10021F4
:10330C00FFF7E9FF200070BD030041188B4202D08B
:10331C001A78002A01D1181A70470133F6E7F0B574
:10332C000D003721C91A8FB0C9B20D911F210400AD
:10333C000B400C930C99E3B2082955D0102900D1FD
:10334C0064E0E90760080843690806900791A00843
:10335C00A9070843A90808900991089E099F069897
:10336C000799801979410E07B446060900966646FE
:10337C00009F37430E0900970196009E019F80190C
:10338C0079410E06B4466746060A3E4302960E0A7B
:10339C000396029E039F801979410E04B44667463A
:1033AC00060C3E4304960E0C0596049E059F801950
:1033BC00794100260A910B960A9E0B9F8019794140
:1033CC004E07CD080521C4083443614349005B1AFC
:1033DC00DBB2092B12D9012000210A3B24184D41E4
:1033EC00DBB21DE00200A5E707210B4069078C4604
:1033FC006646E008E908064334000D0030331370CC
:10340C002300501C2B43EDD10FB0F0BD0F210B400E
:10341C0029078C46664620092909064334000D000D
:10342C00092BEBD90D99CB18DBB2E7E70148006803
:08343C00704700002802002087
:08344400E0CDFF7F0100000054
:10344C00C903000800000000210D0008CC3400085E
:10345C00050400080000000000000000E034000833
:10346C00850F000844350008850F00086C350008EE
:10347C00E50A0008F4340008850F000858350008E8
:10348C00850F000830350008850F00081C35000832
:10349C00850F0008083500087913000880350008EE
:1034AC007913000894350008310F00080000000063
:1034BC006D18000800000000710A000800000000F0
:1034CC006939000800000000140000207E00002074
:1034DC0000000000CA390008D8370008DC370008A3
:1034EC008C000020000000004B3900080000000098
:1034FC00000000007C0000203C020020763900080F
:10350C00103700088837000880000020BC0200201B
:10351C00843900082437000888370008820000200E
:10352C00CC02002092390008383700088837000890
:10353C0084000020DC020020A03900084C37000871
:10354C008837000886000020EC020020AE39000805
:10355C00603700088837000888000020FC02002033
:10356C00BC39000874370008883700088A0000202E
:10357C000C030020DB390008EC3700088C380008FD
:10358C008E00002030000020EB3900083C38000889
:0C359C008C38000890000020480000203F
:1035A80000000000792C000800000000792C0008B9
:1035B80000000000792C000800000000792C0008A9
:1035C80000000000792C000849390008950A000815
:1035D80047390008950A000845390008950A000887
:1035E80000000000792C000800000000792C000879
:1035F80000000000792C000800000000792C000869
:1036080000000000792C000800000000792C000858
:1036180000000000792C000800000000792C000848
:1036280000000000792C000800000000792C000838
:1036380000000000792C000800000000792C000828
:1036480000000000792C000800000000792C000818
:1036580000000000792C000800000000792C000808
:1036680000000000792C000800000000792C0008F8
:1036780000000000792C0008943500086730000825
:10368800803500086730000800000000792C000829
:0836980000000000792C00087D
:1036A000040000000F0000000100000008000000FE
:1036B0002000000060000000700000000D0000000D
:1036C0000C0000000E00000050000000740000001C
:1036D000A8000000FFFFFFFFFFFFFFFFFFFFFFFF4E
:0436E000FFFFFFFFEA
:1036E400000000200000000000000B0602000000A3
:1036F400F8360008000000083639000824000207E4
:10370400000000203E39000822000B11FFFF0000DA
:1037140000140050050000003400000020000000E8
:10372400FFFF0000001000500400000034000000FF
:1037340010000000FFFF0000000C00500300000018
:103744003400000008000000FFFF000000080050E3
:10375400020000003400000004000000FFFF00002D
:1037640000040050010000003400000002000000CA
:10377400FFFF0000000000500000000034000000C3
:1037840001000000EB2D0008B12C0008BD2C00083E
:10379400CF2C0008D92C0008E32C0008B90F00082E
:1037A400F12C0008000000006C35000858350008B2
:1037B40044350008303500081C3500080835000879
:1037C40000000000000000000000000000000000F5
:1037D4000000000000100240DF2E0008FF2E000849
:1037E4001B2F0008372F000800440040E034000875
:1037F40091050000143800080100000000000000DA
:1038040000000000000000001C3800088B30000895
:103814003C00000000000200243800080100000001
:103824002C380008020000004100000000020000E3
:10383400610000000000000000380140E03400088E
:103844000E060000643800080100000000000000BB
:1038540000000000000000006C3800087730000809
:10386400400000000040000074380008010000001F
:103874007C380008020000008104000000020000FF
:10388400A1040000000000001B310008BF30000844
:10389400792F000839150008BD16000861170008C3
:1038A400C5170008DF2F0008FB2F0008AB30000805
:1038B40017300008333000089F3000084F300008EC
:1038C4001D11000879110008F73000085B3000086A
:1038D4005F3000080000000000000000000000004D
:1038E40000000000000000000000000000000000D4
:1038F40000000000010000000200000003000000BE
:10390400040000000600000007000000080000009A
:10391400090000004C3400084C340008BC34000892
:10392400C4340008CC340008CC3400080010000073
:103934000030464C4153485F30005352414D5F3094
:1039440000040C02020002696E7465727275707470
:103954002D636F6E74726F6C6C65724034303032EC
:1039640031383030007263634034303032313030BB
:1039740030006770696F403530303031343030009A
:103984006770696F403530303031303030006770E7
:10399400696F403530303030633030006770696FA4
:1039A400403530303030383030006770696F403522
:1039B40030303030343030006770696F403530302B
:1039C40030303030300072657365742D636F6E74FF
:1039D400726F6C6C65720073657269616C4034302F
:1039E4003030343430300073657269616C40343087
:1039F4003031333830300069646C65006D61696E54
:103A0400002A2A2A20426F6F74696E67205A6570F3
:103A1400687972204F53206275696C642076332E66
:103A2400362E30202A2A2A0A00286E756C6C29004A
:083A34002A666C6F61742A0020
:103A3C003B2C000800000000A72C00080000000030
:103A4C0000000000050C0008290C00080000000014
:103A5C00AD0C0008810E0008000000004D0C0008A1
:103A6C0000000000400000200000000000000000EA
:103A7C0000C20100000103000000000058000020FB
:103A8C00000000000000000000C201000001030063
:103A9C000024F4006400002064000020FFFFFFFFFE
:0C3AAC00FFFFFFFFFFFFFFFFFFFFFFFF1A
:103AB80000000000000000000000000000000000FE
:063AC800000000000000F8
:043ACE0015E015E00A
:040000050800056981
:00000001FF
