:020000040800F2
:1000000010860020A95B0008EB250108955B00081D
:1000100000000000000000000000000000000000E0
:10002000000000000000000000000000FD5C00086F
:100030000000000000000000715C000825A300081B
:10004000895E0008895E0008895E0008895E0008F4
:10005000895E0008895E0008895E0008895E0008E4
:10006000895E0008895E0008895E0008895E0008D4
:10007000895E0008895E0008895E0008895E0008C4
:10008000895E0008895E0008895E0008895E0008B4
:10009000895E0008895E0008895E0008895E0008A4
:1000A000895E0008895E0008895E0008895E000894
:0C00B000895E0008895E0008895E000877
:1000BC0002B4714649084900095649008E4402BCF5
:1000CC007047C04602B4714649084900095C4900B2
:1000DC008E4402BC7047C046002934D00123002254
:1000EC0010B488422CD301242407A14204D28142AB
:1000FC0002D209011B01F8E7E400A14204D28142BB
:10010C0002D249005B00F8E7884201D3401A1A4337
:10011C004C08A04202D3001B5C0822438C08A0426E
:10012C0002D3001B9C082243CC08A04202D3001B24
:10013C00DC082243002803D01B0901D00909E3E79E
:10014C00100010BC704701B5002000F05FF802BD34
:10015C000029F8D003B5FFF7C1FF0EBC4243891A42
:10016C001847C046002941D010B404004C40A446A6
:10017C0001230022002900D54942002800D5404225
:10018C0088422CD301242407A14204D2814202D2FA
:10019C0009011B01F8E7E400A14204D2814202D21A
:1001AC0049005B00F8E7884201D3401A1A434C0817
:1001BC00A04202D3001B5C0822438C08A04202D34D
:1001CC00001B9C082243CC08A04202D3001BDC0875
:1001DC002243002803D01B0901D00909E3E71000D2
:1001EC006446002C00D5404210BC704701B500207D
:1001FC0000F00CF802BDC0460029F7D003B5FFF79C
:10020C00B3FF0EBC4243891A1847C0467047C0461C
:10021C00D0400B00D1409C46203AD3401843524268
:10022C006346934018437047844608006146FFE7D5
:10023C001FB501F0BBF9002801D40021C8421FBD35
:10024C0010B501F03EF94042013010BD10B501F07F
:10025C00ADF9002801DB002010BD012010BDC04607
:10026C0010B501F0A3F9002801DD002010BD01201C
:10027C0010BDC04610B501F04BF9002801DC002080
:10028C0010BD012010BDC04610B501F041F9002889
:10029C0001DA002010BD012010BDC0461C21012335
:1002AC001B04984201D3000C10391B0A984201D34D
:1002BC00000A08391B09984201D30009043902A22B
:1002CC00105C40187047C046040302020101010192
:1002DC000000000000000000414208401C210123E6
:1002EC001B04984201D3000C10391B0A984201D30D
:1002FC00000A08391B09984201D30009043902A2EB
:10030C00105C401A7047C0461B1C1D1D1E1E1E1E75
:10031C001F1F1F1F1F1F1F1F002B11D1002A0FD1C2
:10032C00002900D1002802D00021C943080007B4DD
:10033C00024802A14018029003BDC046D1FEFFFF47
:10034C0003B4684601B5029801F04CF8019B9E4637
:10035C0002B00CBC7047C046084A43081340C01A90
:10036C000200074B800818401A40121813099B18FA
:10037C00044A054813405843000E704755555555CF
:10038C00333333330F0F0F0F010101014A02F8B55C
:10039C0043024400C50F500A84464800240E000E48
:1003AC005F0AC90F9B099209261A8D4200D09EE064
:1003BC00002E42DD8021C90400281ED1002A0AD05B
:1003CC00661E012C05D19B1801340B4246D1013C11
:1003DC0001E0FF2C14D15A0704D00F221A40042A32
:1003EC0000D004335A0100D42EE101340026FF2C36
:1003FC0019D09D4EDB081E4015E0FF2CEBD00A43B4
:10040C001B2E01DD0133E6E72020801B110082400A
:10041C00F140501E82410A439B185A01DBD501342E
:10042C000026FF2C1AD1FF23E005DB057602760AA5
:10043C0018403043ED072843F8BD002E2ED08026FF
:10044C00011BF604002C14D1002B00D1F3E04C1E40
:10045C0001290AD19B1802243342B8D001228349C6
:10046C001A405B080B401343B5E7FF2906D1130074
:10047C00AEE0FF2800D1E0E00C0033431B2C02DD82
:10048C00531C0400A7E719002026E140341BA340AD
:10049C005C1EA3410B4304009B18BEE7FE20611CAD
:1004AC0001421ED1002C0DD1002B00D1C7E0002A37
:1004BC0000D190E79B185A0100D48CE76C4A13408A
:1004CC000C0088E7002BD2D0FF24002A00D182E751
:1004DC008023DB039F4202D39C4500D26746FB007E
:1004EC0076E00C00FF299ED09B185B0873E7002E6A
:1004FC0025DD00281CD1002A00D16CE7661E012CDA
:10050C0006D19B1A5A0100D465E79B019E0975E040
:10051C00FF2C00D15FE701211B2E07DC2020801B64
:10052C0011008240F140501E824111435B1AE9E7F1
:10053C00FF2C00D14FE78021C9040A43EBE7002EC2
:10054C0025D0051B002C0DD1002B08D06E1E012DC3
:10055C0003D10D00D31A0134D4E7FF2D08D11300B9
:10056C002C0021E0FF286CD080242E00E4042343CF
:10057C0001241B2E07DC2025AD1B1C00AB40F440D6
:10058C005D1EAB411C43131B0D000400BAE7FE2695
:10059C00601C30422DD1002C14D1002B06D125002B
:1005AC002600131E00D13EE70D0014E7002A00D1EF
:1005BC0011E79E1AD31A7001F6D4331E00D00AE745
:1005CC00350030E7002B05D1002A49D013000D006F
:1005DC00FF2400E7FF24002A00D1FCE68023DB0384
:1005EC009F4200D27BE79C4500D378E767460D001D
:1005FC0075E79E1A700115D50D00D61A3000FFF75D
:10060C004DFE330005388340844210DC2022001B51
:10061C000130121A19009340C1405A1E9341002414
:10062C000B43D8E6002EE9D135003400FBE6104A26
:10063C00241A1340CFE6130042E7130021E71300FE
:10064C00C9E613000400AFE7DE08FF2C00D0EAE691
:10065C00002E00D1E7E68023DB03FF241E43E2E6F5
:10066C0080261500F603F6E7FFFF7F1FFFFFFF7DD7
:10067C00FFFFFFFBF0B5C30F85B0440245000F1C14
:10068C00640A2D0E039302930AD0FF2D3BD08023D6
:10069C00E400DB041C4300237F3D019500930EE036
:1006AC00012301940093002C09D02000FFF7F6FDE4
:1006BC00431F9C4076235B421B1A019300957D02DD
:1006CC007E006D0A360EFF0F002E23D0FF2E2ED08B
:1006DC008023ED00DB041D4333007F3B0022019897
:1006EC000399C31A009879408000104301380E28F2
:1006FC0023D8FFF7E7FC4D9973999299734D4D925E
:10070C00736161615300022301950093002CD6D0D4
:10071C000133C3E72B000122002DE0D02800FFF7A6
:10072C00BDFD431F9D4076235B421B1AD6E7330069
:10073C000222002DD3D00132D1E764016D01AC420D
:10074C0028D31A200122641B0126270052006400C2
:10075C00002F01DBA54201D8641B3243013800286D
:10076C00F3D1601E8441144318007F30002838DD1B
:10077C00620704D00F222240042A00D00434220144
:10078C0003D5803318002B4A1440E508FE281DDDE4
:10079C0000250FE01B200022013BD5E78023DB0363
:1007AC001C4203D01D4201D12C00029780250299D6
:1007BC00ED032543FF2009E00399009A022AE7D0B4
:1007CC00032A2FD000252800012ACDD16D026D0AF5
:1007DC00C0052843C907084305B0F0BD2C003900FB
:1007EC00ECE701220025121A28001B2AEEDC9E33AE
:1007FC0025009C40D540631E9C4125436B0704D0CB
:10080C000F232B40042B00D0043580232800DB045D
:10081C0018401D420BD1ED08D8E780240023E403D7
:10082C000293C3E70291C1E700252800CEE700251B
:10083C000120CBE7FFFFFFF7F0B5C30F85B04702F0
:10084C00440002917F0A240E03930AD0FF2C71D02E
:10085C0080227F3C26000023FF00D2041743019323
:10086C000CE001233E1E019308D03800FFF716FD63
:10087C007626431F9F407642361A0194029B5C02F7
:10088C005D00DB0F640A2D0E02935AD0FF2D64D04D
:10089C0080232800E400DB041C437F3800230299EA
:1008AC00039A4A40811901988C46850001311D43F9
:1008BC000A2D00DD78E0022D55DC013D012D63D9B8
:1008CC00250CA4B226003B0CB8B246435C436843EB
:1008DC006B4300191F00330C1B189C4202D980205B
:1008EC0040023F181804B6B28619B401601E844148
:1008FC001B0CB60EDB1934439B011C431B0168D542
:10090C00012360081C40044308007F30002862DD8E
:10091C00630704D00F232340042B00D0043423019D
:10092C0003D5803108003E4B1C40E508FE2833DD22
:10093C0000254CE0022326000193002F9ED00133AA
:10094C008DE720000123002CA9D0FFF7A7FC431F43
:10095C009C4076235B42181AA0E728000223002C47
:10096C009DD001339BE70120A840A6250600ED0091
:10097C002E4028421DD19025AD00284247D1B93DCB
:10098C00FF3D28429CD0029A022BD1D0032B42D09F
:10099C0000252800012BB7D16D026D0AC005284334
:1009AC00D207104305B0F0BD039A0F2D04D00B2DC8
:1009BC00E9D03C00019BE7E78023DB031F4203D017
:1009CC001C4201D12700029A8025ED033D43FF20F4
:1009DC00E2E7614698E7012300251B1A28001B2B30
:1009EC00DADC9E3125008C40DD40631E9C412543A2
:1009FC006B0704D00F232B40042B00D0043580232D
:100A0C002800DB0418401D4207D1ED08C4E78027FD
:100A1C003200FF03D8E72700D6E700250120BBE70B
:100A2C00FFFFFFF7F0B54602730A85B001930393FD
:100A3C00DA004B024400C50F580A02904800240EFD
:100A4C00000EC90F9B09FF281DD1FF277F42BC4612
:100A5C00A444002B0BD00F008D4200D0D8E061468F
:100A6C00002900D182E0002C73D1040061E0012741
:100A7C004F40BD4200D0D3E06146002976D0002C17
:100A8C00F3D0FF2416E00127BC464F40211ABD428B
:100A9C0000D095E0002942DD8026F604002820D104
:100AAC00002B1CD0611E644517D19B1802243342C5
:100ABC002ED164465A0704D00F221A40042A00D0C3
:100ACC0004335A0100D432E101340026FF2C00D14A
:100ADC00E4E09C4EDB081E40E0E0FF2C04D1130048
:100AEC00E8E7FF2CFBD033431B2901DD531CE1E766
:100AFC0018002026C840711A8B40591E8B410343A5
:100B0C009B185A01D6D501340026FF2C00D1C5E024
:100B1C0001228D491A405B080B401343CAE7002998
:100B2C0024D0011B002C03D08024E40422430DE0CC
:100B3C000C00002ABED0611E012C05D19B1801347B
:100B4C005A01E5D4013CB5E7FF2CB3D01B2902DDDB
:100B5C0001330400AEE714002026CC40711A8A4001
:100B6C00511E8A4122439B180400CAE7FE20611CD7
:100B7C0001421ED1002C0AD1002A9BD0002BAED0F2
:100B8C009B185A0196D5714A0C00134092E7FF242A
:100B9C00002A8FD0002BA2D08023019ADB039A422B
:100BAC0004D3029A9A4201D23D000392039BDB00CC
:100BBC0067E70C000026FF2970D0D3185B0879E793
:100BCC00002935DD00281CD1002B88D0611E012C9A
:100BDC0007D16446D31A5A0100D46BE79B019E09D6
:100BEC0088E0FF2C00D17AE701201B2907DC1800D4
:100BFC002026C840711A8B40591E8B411843131A7A
:100C0C00E9E7FF2C00D16AE78020C0040343EBE73F
:100C1C006646002E36D0002C19D004000D0049E792
:100C2C00614600292ED0002C14D004003D0041E771
:100C3C00002927D0061B002C1FD13D003400002AB0
:100C4C0000D137E7661E012C06D19B1AC3E70D00B5
:100C5C000400F4E73D00FBE7FF2C00D12AE701215B
:100C6C001B2E07DC2024A41B1100A240F140541EB3
:100C7C00A241114304005B1AADE78021C9043D0079
:100C8C000A43ECE7FE20611C01422ED1002C1DD141
:100C9C00002A0ED125002600002BC7D1FF23E0052A
:100CAC00DB0576021840760A3043ED07284305B081
:100CBC00F0BD002B00D112E7D61A710101D59B1A99
:100CCC00B4E7331E00D0F5E62500E7E7002A07D18C
:100CDC003D00002B00D0D4E680261D00F6032BE04F
:100CEC00002B00D058E71300CBE6D61A710115D5AE
:100CFC003D009E1A3000FFF7D1FA330005388340CF
:100D0C00844210DC2022001B0130121A190093407F
:100D1C00C1405A1E934100240B43CBE6002EE9D16F
:100D2C0035003400BAE7094A241A1340C2E6DE083B
:100D3C00FF2CB3D1002EB1D08023DB03FF241E4344
:100D4C00ACE7C046FFFF7F1FFFFFFF7DFFFFFFFBF0
:100D5C0041024300C20F490A00201B0E7E2B03DD0B
:100D6C009D2B02DD084BD0187047802000040843EF
:100D7C00952B05DD963B9840002AF5D04042F3E7D1
:100D8C009621CB1AD840F7E7FFFFFF7F70B5030021
:100D9C000400051E0ED0C21785185540C40F28003C
:100DAC00FFF77CFA9E231B1A962B0ADC08282CD002
:100DBC00083885406A02D805520A1043E4072043DC
:100DCC0070BD992B1CDD05222900121AD14002009E
:100DDC001B3295402A00551EAA4111430D002A00D2
:100DEC000B4E3240690704D00F212940042900D052
:100DFC000432510102D59F2332401B1AD508D9E782
:100E0C00421F0528EBD09540E9E79623D2E7C04670
:100E1C00FFFFFFFB002370B50400984209D0FFF7D9
:100E2C003DFA9E231B1A962B08DC082829D008387B
:100E3C0084406402D805640A204370BD992B1BDDE5
:100E4C00020021001B3291400A00511E8A410521EB
:100E5C00091ACC40144322000B4D2A40610704D0E0
:100E6C000F212140042900D00432510102D59F23C7
:100E7C002A401B1AD408DCE7421F0528EBD094400B
:100E8C00E9E79623D5E7C046FFFFFFFBFE2270B5CE
:100E9C004400240E4302611C5D0AC60F11420DD0A2
:100EAC00E0229200A4181B0B6D071B031B0B2405DF
:100EBC00F6071C4334432800210070BD002C18D1C8
:100ECC002300002DF1D02800FFF7E8F90A280ADCEE
:100EDC000B232A001B1ADA4013000200153295402E
:100EEC00094C241AE1E703000B3B9D402B00250025
:100EFC00F6E7002D06D01A0B80231B036D07134356
:100F0C00024CD2E72B00FBE789030000FF0700002F
:100F1C00F7B50B034A005B0A460F520D1E43531CD8
:100F2C009C460400C7003C48C90F0340019363462C
:100F3C00034249D0394BD018FE2868DC002837DC36
:100F4C000300173365DB80241E25240434432D1A3B
:100F5C001F2D10DC324BD2183B0097409440781E6A
:100F6C008741EB4027433B4307241A00224023428E
:100F7C003BD1DB0832E002235B421B1A2000D84035
:100F8C0003000020202D03D026481218200090408A
:100F9C003843421E9041034307241A002240234247
:100FAC00E7D00F221A40042A24D00020043308E092
:100FBC00A401621E9441F6007B0F344323435A076D
:100FCC001BD10200DB0809E0019B002A06D03B0084
:100FDC00FF22334302D08023DB0333435B02D00573
:100FEC005B0A1843C9070843FEBD0F2200201A40B4
:100FFC00042A06D10022DB08F0E70F221A40042A4B
:10100C00DFD004335A01DCD5421C0023E6E7FF2273
:10101C00FBE700221300E1E7FE07000080FCFFFF66
:10102C0082FCFFFFA2FCFFFF03B47146490840009D
:10103C004900095A49008E4403BC70479140030093
:10104C0090409C46203A9340194352426346D34009
:10105C00194370478446100062468C46190063465B
:10106C0000E0C0461FB500F0F7F8002801D40021BD
:10107C00C8421FBD10B500F037F84042013010BD1A
:10108C0010B500F0E9F8002801DB002010BD0120AC
:10109C0010BDC04610B500F0DFF8002801DD0020BF
:1010AC0010BD012010BDC04610B500F05FF800283F
:1010BC0001DC002010BD012010BDC04610B500F0B1
:1010CC0055F8002801DA002010BD012010BDC046E3
:1010DC0010B5002903D1FFF7E1F8203002E0080039
:1010EC00FFF7DCF810BDC046F0B50D0087B00092DC
:1010FC000193040004900198EB0F4600C70F1A48A7
:10110C0003938446009B09030593019B6A001B0310
:10111C000120090B520D1B0B760D624503D0664561
:10112C000DD107B0F0BD9642FBD1009A0B4313438F
:10113C002343F6D1039BD81B431E9841F1E70120B2
:10114C00B242EED19942ECD1049B059EB342E8D158
:10115C00039BBB4206D0002AE3D121434B1E99418D
:10116C000800DEE70020DCE7FF070000F0B587B0E1
:10117C00009001911D00009B14000493019B290316
:10118C001A03130B334A03939446019B68005F00C8
:10119C007B0D0293029A019B0594DB0F090B400D0A
:1011AC00EE0F624512D1009A039F17434FD1029A5A
:1011BC00904204D00120002B06D0023804E02143D9
:1011CC00081E44D1B342F5D107B0F0BD604511D132
:1011DC0021433CD1029A002A04D0B342EAD1181E12
:1011EC00F2D105E0009A03991143F6D1301EEBD1F0
:1011FC0001202DE0029A002A17D00028DAD0B34241
:10120C00D8D1029A8242D5DC029A8242E7DB039A59
:10121C008A42CFD8E3D1049A05998A42CAD8049A53
:10122C00059900208A42CFD2D9E7009F039A174331
:10123C00002802D0002FD9D0CFE70C4304D0002FC8
:10124C00D4D0B342E3D0B5E7002FBDD0B2E7022033
:10125C004042B9E7FF070000F0B587B0009001915C
:10126C001D00009B14000493019B68001A03130BD0
:10127C00344A03939446019B05945F007B0D0293C3
:10128C00019B029AD90F2B031B0B400DEE0F6245ED
:10129C0013D1009A039F174352D1029A904204D063
:1012AC000120002907D0023805E00220234302D197
:1012BC001800B142F4D107B0F0BD604513D1022043
:1012CC002343F8D1029B002B04D0B142E8D1081E75
:1012DC00F1D105E0009B039A1A43F6D1301EEAD1F6
:1012EC0001204042E7E7029A002A17D00028D7D005
:1012FC00B142D5D1029A8242D2DC029A8242E6DB1A
:10130C00039A9A42CCD8E2D1049B059A9342C7D84F
:10131C00049B059A00209342CDD2D8E7009F039AF4
:10132C001743002802D0002FD8D0CEE71C4304D09E
:10133C00002FD3D0B142E3D0B2E7002FBBD0AFE740
:10134C000220B8E7FF070000D0400B001141203A03
:10135C0003D49C46134118436346524293401843AE
:10136C007047C046F7B5040C0D0091B20F006143F5
:10137C008C460600019383B2100C5F4344435843E0
:10138C003B0C60441B18994202D980214902641815
:10139C00019955437143180C04191B04BFB2491928
:1013AC00D819091903B0F0BD10B5002802D0FEF70A
:1013BC0093FF013010BD9E2110B5C905041CFEF72A
:1013CC0063FF00280AD09E21201CC905FFF72AFBC9
:1013DC00FFF7BEFC80231B06C01810BD201CFFF7B6
:1013EC00B7FCFAE7F0B506000F0015001C0085B03D
:1013FC008B4263D801D1824260D821002800FFF7CC
:10140C0067FE390000903000FFF762FE009B210060
:10141C001B1A1A0028000393FFF710FE009001918D
:10142C00B94245D801D1B04242D8009B019C012061
:10143C000021039AF61AA741FFF700FE04000D00E5
:10144C00039B002B2BD0019B009ADB075008184301
:10145C00019B5908039B9C46B9422CD801D1B04240
:10146C0029D832003B00121A8B41012692185B419D
:10147C000027B6185F4101235B429C446346002B56
:10148C00EAD130003900039AFEF7C2FE039AA41980
:10149C007D4106000F00FFF7D1FD241A8D410A9BF8
:1014AC00002B01D01E605F602000290005B0F0BD4C
:1014BC0000240025C4E7B6197F41DCE70024002591
:1014CC00EDE770B54A02440245004E00C30F640AB2
:1014DC0001202D0E520A360EC90FFF2D02D0FF2E01
:1014EC0007D170BDFF2EFCD12243FAD14B4018001E
:1014FC00F7E70120B542F4D19442F2D18B4205D0EA
:10150C00002DEED12000431E9841EAE70020E8E7C9
:10151C0030B54A0244024500C30F4800640A2D0E40
:10152C00520A000EC90FFF2D0ED1002C38D1FF2806
:10153C0004D00120002B06D0023804E0002A2FD161
:10154C0010008B42F5D130BDFF280BD1002A27D1DA
:10155C00002D01D1002C1FD08B42EAD1002B1DD0C5
:10156C001800F0E7002D0ED00028E2D08B42E0D11D
:10157C008542DEDCF2DB9442DBD800209442E2D2DE
:10158C008342EDD10AE00028E4D1002A02D1002CDC
:10159C00D9D0CEE7002C06D1081ED4D1012000E012
:1015AC0002204042CFE78B42E5D0C2E730B54A0279
:1015BC0044024500C30F4800640A2D0E520A000E67
:1015CC00C90FFF2D0FD1002C3BD1FF2804D00120D7
:1015DC00002B07D0023805E00220002A02D11000AF
:1015EC008B42F4D130BDFF280CD1FD38002AF9D143
:1015FC00002D01D1002C1FD08B42E8D1002B1DD027
:10160C001800EFE7002D0ED00028E0D08B42DED181
:10161C008542DCDCF2DB9442D9D800209442E1D242
:10162C008342EDD10AE00028E4D1002A02D1002C3B
:10163C00D8D0CCE7002C06D1081ED3D101204042D3
:10164C00D0E70220CEE78B42E5D0C0E702780B78DA
:10165C00002A03D0013001319A42F7D0D01A7047DA
:10166C0003000A7801311A700133002AF9D170474E
:10167C000023C25C0133002AFBD1581E70470000C6
:10168C0030B5264C0C22A54404000021684615F008
:10169C003BF801222100684610F0BFFF002808D05B
:1016AC0002241F4810F020FC644220001D4B9D4476
:1016BC0030BD1D4810F018FC802583A810F080FF69
:1016CC00AD002A00684603A910F0F4FF021E15DCD9
:1016DC000123002203A983A804F082F9684610F0C4
:1016EC00D6FF124810F000FC002011F09EFAFA20F0
:1016FC00400010F032F8012002F0DAFE002303A9BA
:10170C0083A804F06DF9041EDBDA2100084810F000
:10171C00EBFB684610F0BBFFC7E7C046CCEDFFFF04
:10172C00B481010834120000D48101081882010828
:10173C00F9810108F0B56420D5B010F00EF8002046
:10174C0003F0C2FB011E05D00300783302D0A04881
:10175C0010F0CAFB00219F480DF0D4FA9E4810F0FF
:10176C00C3FB9E4804F040FD9D4D041E00D017E1C4
:10177C009C4810F0B9FB01232B709B499B4810F03F
:10178C00B3FB9B4C200014F0E9FB0490002800D123
:10179C001AE102F075FC6422002396480092019332
:1017AC000DF0E8FF200001F01DFF934B210000938A
:1017BC00FF2340229B05914802F032FDFE23904E00
:1017CC002100432200969B058E4802F029FDFE2342
:1017DC008D4D21004C22280000969B0502F020FD27
:1017EC00FE234F229B0521000096884802F018FD2D
:1017FC002800874910F07DF901F01EFC14F04CFE16
:10180C000A220023FEF788FD0027059008A801F0A6
:10181C00C7FD00284FD100230B9906930793099815
:10182C0007AB06AA01F020FC7A4B1B78002B22D1C7
:10183C00802614AD76003200290008A802F008F8C2
:10184C007D21280014F0BCFF041E10D0431B079808
:10185C00F61AFFF71BFB029003910698FFF716FB95
:10186C006D4A00900191310020000EF0FFF8290024
:10187C006A4810F039FB002F0CD114F00DFE002338
:10188C000A22FEF749FD059BC01A654B984202D906
:10189C0010F03EF8049F412302AA9B180F221B78DC
:1018AC005B0813400C2B06D112AB1B789B0702D59F
:1018BC005C4801F025FF574B1B78002B6BD14F4830
:1018CC0014A902F0F3FC002814D11498FFF7DEFAE7
:1018DC00040017980D00FFF7D9FA0290039116989F
:1018EC00FFF7D4FA504E0090019122002B003000EB
:1018FC0010F0FAFA434814A902F0D8FC002814D1CD
:10190C001498FFF7C3FA040017980D00FFF7BEFAFE
:10191C00029003911698FFF7B9FA444E009001918A
:10192C0022002B00300010F0DFFA374814A902F027
:10193C00BDFC002814D11498FFF7A8FA04001798DE
:10194C000D00FFF7A3FA029003911698FFF79EFA89
:10195C00374E0090019122002B00300010F0C4FA99
:10196C002A4814A902F0A2FC002814D11498FFF7FD
:10197C008DFA040017980D00FFF788FA0290039176
:10198C001698FFF783FA2B4E0090019122002B0042
:10199C00300010F0A9FA284B18680FF0DEFE35E77E
:1019AC002648210010F0A0FA002325482B70631D57
:1019BC0007D023002348133303D0163400D0DCE6C1
:1019CC00214810F091FAD8E61320404255B0F0BDF2
:1019DC004C820108A86100007C820108680100208B
:1019EC00505E0020A18201080A84010810840108BD
:1019FC00E06D0108800700203D0A573E981000203A
:101A0C000AD7A33E80100020681000205010002040
:101A1C00D7A3F03E515E002034840108AF8D01083D
:101A2C0088130000B80B00004E840108898401085B
:101A3C00C3840108FE8401088C010020C5820108C2
:101A4C00EE8201084D830108AB83010810B5012219
:101A5C005242D31703480DF075FA002801D02E20FE
:101A6C00404210BD3C08002010B502480DF02EFA83
:101A7C0010BDC0463C080020F0B5D3B001F0CCFA44
:101A8C0000230193254DAB681B6D002B03D0042163
:101A9C00280001AA9847019B0526214F002B28D12D
:101AAC0000220023380012A90DF0B8F90028F7D055
:101ABC000024AB681B68002B06D06A46D61C31008C
:101ACC002800984700281ED0002C22D101F076FA6D
:101ADC0000210A200DF016F9D2E7AB6828005B68EC
:101AEC0098470134631E19780029F6D1013E002E67
:101AFC00DED000220023380012A90DF08FF9002847
:101B0C00D6D112ACEDE7327802ABE2540134402C62
:101B1C00CFD1A1B202A801F067F9D7E7546D010843
:101B2C00EC08002010B5044814F018FA002801D075
:101B3C00FFF7A2FF10BDC046546D01080FB4802101
:101B4C0000B5C3B044AB04CB490002A801930FF01D
:101B5C00A9F80022002302A903480DF009F943B0AB
:101B6C0008BC04B01847C046EC080020F0B50400CF
:101B7C00C1B0EFF3108772B60F4D10492A68531C91
:101B8C002B6088540A2801D0FE2B0CD900266846FD
:101B9C000232CE5414F0AFFD0022002369460848EF
:101BAC000DF0E6F82E60002F02D162B6BFF36F8FF6
:101BBC00200041B0F0BDC046B0100020525E0020A5
:101BCC00EC080020F0B504000E0093B0002800DCF7
:101BDC007FE06B4645220021581C14F095FD5A23DA
:101BEC006A4635685A4928001370FFF72FFD012308
:101BFC00002800D1A2E028005649FFF727FD022358
:101C0C00002800D19AE028005349FFF71FFD071E5A
:101C1C0013D1032C11D10100102270680EF07EF943
:101C2C006B466A4658700123390053801022B06805
:101C3C000EF074F96B46187141E048492800FFF723
:101C4C0005FD011E0CD1022C18D1102270680EF06B
:101C5C0065F905236A4640BA5370548090802EE093
:101C6C003F492800FFF7F2FC011E07D1022C05D1D9
:101C7C00102270680EF052F90623EBE72800394960
:101C8C00FFF7E4FC0723002858D028003649FFF75B
:101C9C00DDFC071E1FD1032C1DD101001022706822
:101CAC000EF03CF96A46082340BA53709080548079
:101CBC0039001022B0680EF031F96B469871684605
:101CCC0002F0BCF8002840D16B462848597810F037
:101CDC000BF913B0F0BD26492800FFF7B7FC011E25
:101CEC0007D1022C15D1102270680EF017F90923B8
:101CFC00B0E720492800FFF7A9FC011E09D1022CEE
:101D0C0007D16A460A235370093B5380706810222E
:101D1C008EE728001849FFF799FC0B2300280DD0FB
:101D2C0028001649FFF792FC9923002806D02800BA
:101D3C001349FFF78BFC002803D19A236A46537092
:101D4C00BDE7104810F0D0F8C3E70F48FAE7C046DB
:101D5C005385010858850108DB8D01085B85010856
:101D6C00648501086C85010874850108BD8501082E
:101D7C007B850108828501088A850108CF8D0108C1
:101D8C009285010897850108DE850108F0B50500EC
:101D9C000C0085B001280FDD0E6893493000FFF769
:101DAC0055FC00280AD1032D08D1606814F0B9FC49
:101DBC00A168C0B201F034FE05B0F0BD30008B4913
:101DCC00FFF744FC071E28D1042D14D1606814F0D1
:101DDC00A8FC390005001022A0680EF09FF839000D
:101DEC0006001022E0680EF099F8F1B2C2B2E8B227
:101DFC0001F03CFEE0E730007D49FFF727FC0028AE
:101E0C0022D030007B49FFF721FC00284AD1022D5B
:101E1C0029D1606801F0D8FECEE730007449FFF795
:101E2C0015FC0028EDD1042D0ED17349A068FFF7E5
:101E3C000DFC002813D1E068656814F072FC0100F9
:101E4C00280001F085FEB7E7032D08D1A06865686E
:101E5C0014F067FCC1B2280001F04CFEACE76748F7
:101E6C0010F042F8A8E730006549FFF7EFFB0028B7
:101E7C0034D030006349FFF7E9FB002800D184E03F
:101E8C0030006149FFF7E2FB002800D09AE0022DF8
:101E9C0000D0A6E0606814F03FFCFFF739F801F0C1
:101EAC001DFF89E730005649FFF7D0FB002859D1B8
:101EBC00022D13D1646855492000FFF7C7FB002899
:101ECC0003D101F0F3FE5248CAE7200014F024FCC1
:101EDC00FFF71EF801F0D6FE4E48C1E7072D00D0E3
:101EEC006AE74D496068FFF7B1FB051E00D063E758
:101EFC00A6684A493000FFF7A9FB00282CD0300017
:101F0C004749FFF7A3FB002828D030004549FFF7CD
:101F1C009DFB002824D00A220021E0680EF078F8FE
:101F2C000600206914F0F8FBFEF7F2FF03906069DD
:101F3C0014F0F2FBFEF7ECFF071CA06914F0ECFBAD
:101F4C00FEF7E6FFEDB2009031002800039A3B1C2F
:101F5C0001F0A4FE344883E70125DCE70225DAE72B
:101F6C000325D8E730002749FFF770FB002887D1FD
:101F7C00022D0AD125496068FFF768FB002800D0C4
:101F8C001AE701F0A3FE29486AE7032D00D013E7F6
:101F9C00666823493000FFF759FB023D002806D044
:101FAC0030002049FFF752FB4342584145000A22BA
:101FBC000021A0680EF02CF80100E8B201F07EFEC2
:101FCC001B484DE730001B49FFF740FB002808D1A8
:101FDC00022D06D1606814F0A4FBC0B201F0BAFE69
:101FEC00EAE615483CE7C046F8850108FD8501087E
:101FFC00018601082C860108068601080D86010859
:10200C00E8860108A5860108E486010830860108E7
:10201C00348601084F860108688601086D86010820
:10202C00728601087B86010882860108AC8601084D
:10203C00C3860108EC860108F186010810B5034837
:10204C000FF052FF02F0FEFA10BDC04616870108D1
:10205C00F0B506000C0087B0002831DD0F68274969
:10206C003800FFF7F3FA051E2CD101F03FFF0304F3
:10207C0005AC1B0E6A4663703223D574137453740B
:10208C00937411211323122220700002000EA070F1
:10209C006B446A44694404A802F0ACF86B466A4687
:1020AC006946A5789B7C527C097C0395657814481D
:1020BC000295247801946C46E47C00940FF014FF94
:1020CC0007B0F0BD38000F49FFF7C0FA0028F7D170
:1020DC00042EF5D1606814F024FB0500A06814F000
:1020EC0020FB0600E06814F01CFBF1B2C2B2E8B2AF
:1020FC0001F0F4FE04480FF0F7FEE1E73287010827
:10210C00398701088287010886870108F3B5070023
:10211C000E00FFB000281CDD00240D68012803D040
:10212C00486814F0FEFA040028008749FFF78EFA7D
:10213C00002810D180216846890001F0F9F90028A7
:10214C0004D1694681480FF0CFFE02E080480FF0C1
:10215C00CBFE7FB0F3BD28007E49FFF777FA00284D
:10216C0004D1E0B20FF0A8FB7B48EBE028007B49E0
:10217C00FFF76CFA002803D1E0B20FF0A6FBF3E7EF
:10218C0028007749FFF762FA002804D13234E0B214
:10219C000FF0A4FBE8E728007249FFF757FA002874
:1021AC0003D1E0B20FF0DFFBDEE728006E49FFF74A
:1021BC004DFA002803D1E0B20FF0DEFBD4E7280083
:1021CC006A49FFF743FA002803D1E0B20FF0DDFBB8
:1021DC00CAE728006649FFF739FA002802D10FF048
:1021EC00DEFBC1E728006349FFF730FA002803D172
:1021FC00A0B20FF023FBB7E728005F49FFF726FAE0
:10220C00002803D1A0B20FF03DFBADE728005B49DD
:10221C00FFF71CFA002803D1A0B20FF018FBA3E7BC
:10222C0028005749FFF712FA002803D1A0B20FF08B
:10223C0033FB99E728005349FFF708FA002803D12C
:10224C00A0B20FF016FB8FE728004F49FFF7FEF9FD
:10225C00002803D1A0B20FF003FB85E728004B49FF
:10226C00FFF7F4F9002803D1A0B201F003FA7BE7E1
:10227C0028004749FFF7EAF9002803D1A0B201F082
:10228C00E3F971E728004349FFF7E0F9002803D18F
:10229C00E0B20FF056FB67E728003F49FFF7D6F98D
:1022AC00002803D1E0B20FF022FB5DE728003B4988
:1022BC00FFF7CCF9002803D1E0B20FF021FB53E774
:1022CC0028003749FFF7C2F9002803D1E0B20FF01C
:1022DC0041FB49E728003349FFF7B8F9002803D13F
:1022EC00E0B201F05BFA3FE728002F49FFF7AEF9A7
:1022FC00002809D1012F07D0706814F00DFAFEF7F1
:10230C0007FE01F08BFA2FE728002849FFF79EF90A
:10231C00061E16D1012C0CD10FF0D7FA20000FF0AD
:10232C0010FB300001F03AFA20000FF0E0FA2048E0
:10233C000DE7012001F032FA30000FF0D8FA1D48F9
:10234C0005E71D482900FEE632870108AF8D01081C
:10235C00A6870108E0870108CD880108C487010819
:10236C00EF870108C8870108D0870108CD870108CD
:10237C00D8870108DF870108E4870108EA8701088C
:10238C00EE870108F3870108FA870108FF87010827
:10239C00048801083288010809880108108801089E
:1023AC00158801081E880108298801082D88010854
:1023BC003988010871880108AF88010870B50500DB
:1023CC000C00012814DD0E681E493000FFF73EF9A1
:1023DC0000280ED1606814F0A4F91B4BC0B2187021
:1023EC001B781A49002B00D019491A480FF07CFDB4
:1023FC0070BD30001849FFF729F900280FD160682B
:10240C0014F08FF9154B0100984204DD1900144BA0
:10241C0014481960EAE73228F9DA3221F7E730007C
:10242C001149FFF713F90028E2D1022DE0D06068C2
:10243C0014F077F9A168C0B20FF0D2F90B480FF085
:10244C0053FDD5E7F3880108515E0020EB880108A5
:10245C00ED880108F8880108138901088813000029
:10246C008C010020188901083A8901083F8901086C
:10247C0070B505000C00012812DD0E681E493000F5
:10248C00FFF7E4F800280CD1606814F04AF9C0B2E8
:10249C00431E9841C0B201F02DFE18480FF024FDE8
:1024AC0070BD30001649FFF7D1F8002813D1042D68
:1024BC0011D1606814F035F90500A06814F031F9F9
:1024CC000600E06814F02DF9F1B2C2B2E8B201F0E6
:1024DC00FFFD0C48E2E730000B49FFF7B7F8002886
:1024EC00DED1606814F01DF9431E9841C0B201F0B2
:1024FC001BFE0648D2E7C046F38801085C89010838
:10250C00738901087789010897890108A089010856
:10251C0070B50E4B0E481B78002B0DD000240D4DC2
:10252C002B78002B0BD121000B480FF0DDFC013474
:10253C001035102CF4D109480FF0D6FC70BD2A00D0
:10254C00210007480FF0D0FCF1E7C046505E002098
:10255C00C6890108E65F0020E28901080E8A01089D
:10256C00FD8901080B0010B5002808DD0449186826
:10257C00FFF76CF8002802D1024801F025FB10BDD2
:10258C002B8A0108308A010870B505000C00002860
:10259C000FDD08492068FFF759F8002809D1022DF2
:1025AC0007D16168033001F03BFA034861680FF012
:1025BC009BFC70BD358A0108388A0108F0B593B0D0
:1025CC00002835DD0C6820492000FFF73FF8002873
:1025DC0030D11E480FF088FC0FF009F90A260500CF
:1025EC005A276B4644220021981C14F08DF80124C4
:1025FC006B4668465C701F7001F020FC144801F0BB
:10260C00E3FA0320134901F00BFA134B21001C00D1
:10261C00180001F06FFA013E0021200001F06AFA67
:10262C00002EDED10FF0E3F8411B0C480FF05CFCE0
:10263C0013B0F0BD20000A49FFF708F80028F7D1C5
:10264C0008480FF051FCF3E7688A01086F8A01080B
:10265C00308A0108D49A01089F8A0108A48A0108CB
:10266C00B68A0108BD8A010810B50D4B19780F29DF
:10267C000CD80C480FF038FC0B4B19780B4B1B7813
:10268C00002B07D008000FF097F910BD08480FF089
:10269C002BFCF1E7074B18000FF026FCF5E7C046C2
:1026AC00D55F0020D18A0108E7600020E660002099
:1026BC00DF8A0108EF8A010870B50D0001281BDDC7
:1026CC00086814F02EF80400686814F02AF80B4B14
:1026DC00050018550FF06FF9094B1B789C4206D179
:1026EC00084B1B78002B02D0E0B20FF065F92200EA
:1026FC00290005480FF0F8FB70BDC046D65F0020DE
:10270C00E7600020E6600020038B010810B5054B44
:10271C001B78002B02D001F04FF910BD02480FF0CE
:10272C00E3FBFAE7505E0020268B010810B5024847
:10273C000CF080FC10BDC0461C09002037B50124EC
:10274C006442E5170B4822002B0001A90CF066FB34
:10275C000028F7D1084B1B78002B08D06B46197951
:10276C00DA88064B49030648C9180FF0B2FFFFF789
:10277C00DDFFE7E78C080020505E0020D41000201D
:10278C00C410002010B502000B00024C20000CF00D
:10279C0075FC10BD1C09002070B50D008EB003280F
:1027AC0038DD394B39481B78002B3FD0086813F0C3
:1027BC00B8FF431E04000E2B2ED8354B0001102100
:1027CC00344AC018EB680DF051F9A86813F0A9FF52
:1027DC00314B18550FF0EFF8304E314B3021314A58
:1027EC00009302A833000DF041F9330030212E4A3A
:1027FC00009402A80DF03AF92C4C20000EF0F1FFD9
:10280C0002A9122220000FF008FF011E11DA28483D
:10281C000FF06AFB0EB070BD632806D130211F4B40
:10282C00244A02A80DF022F9E6E723480FF05CFBDE
:10283C00F0E70122214B00211A70686809320DF073
:10284C00E7FB1F4B1F4A1860002313601E4A1360DE
:10285C001E4A13700EF0CBFF1D4B18600020002198
:10286C00FFF790FF0028F9D0FFF760FFFFF75EFF3E
:10287C0001204042C117FFF785FF0022154B164877
:10288C001A70164B1A60D1E7505E0020378B010886
:10289C00E65F0020588B0108D65F002043850108B5
:1028AC005B8B0108558B0108608B0108C41000205C
:1028BC00938B01086E8B0108798B0108D35F002084
:1028CC00C0100020BC100020B8100020D25F0020E7
:1028DC00B4100020D45F0020BE8B0108D010002063
:1028EC00F0B506000D00A5B0002820DD0C68AE493F
:1028FC002000FEF7ABFE00280AD1AC480FF0F4FA2A
:10290C00FA20002180000CF0FDF9012001F0D0FD2F
:10291C002000A749FEF79AFE00280DD1022E0BD1FC
:10292C00686813F0FEFE002803D001F015FD25B0F9
:10293C00F0BD01F049FDFAE720009E49FEF786FE46
:10294C0000280BD180219C4B49031A6A9B481140EB
:10295C004B42594101310FF0C7FAE8E72000984982
:10296C00FEF774FE00285DD1022E5BD1686813F06F
:10297C00D8FE431E04000E2BD9D8924D30212B00CB
:10298C00914A009008A80DF071F8904A2B00302164
:10299C0014A80DF06BF821008D480FF0A5FA02A8D1
:1029AC000EF01FFF05A80EF01CFF012208A902A8BB
:1029BC000FF033FE002809DB122214A905A80FF032
:1029CC002CFE051E0BDA02A80FF061FE814823E0F5
:1029DC003200390005A80FF07CFE86421FDC8022F5
:1029EC007D4F9201390002A80FF064FE061EEFDC49
:1029FC0002A80FF04CFE05A80FF049FE002DE5D102
:102A0C00764821011022091813F0BEFE744B1A5D92
:102A1C001A700EF0D0FF73480FF066FA87E70525A1
:102A2C006D42E5E720007049FEF710FE00281CD12E
:102A3C006E480FF059FA01240225624B624A30218C
:102A4C00009414A80DF012F814A80FF051FE634A6C
:102A5C0023019B1800221A70614B1D550134102C58
:102A6C00EBD10EF0A8FF6248D6E720006149FEF7D3
:102A7C00EDFD00280DD1022E0BD16968514B009150
:102A8C005D4A302114A80CF0F1FF14A8FEF7F8FDF4
:102A9C004DE720005949FEF7D9FD002825D1032E1A
:102AAC0023D13021564A474B08A80CF0DFFF05A86C
:102ABC000EF097FE122208A905A80FF0AEFD002813
:102ACC0011D1AB68402100936B684E4A14A80CF0EE
:102ADC00CDFF14A9020005A80FF0FBFD05A80FF00F
:102AEC00D6FD494898E7494896E720004849FEF743
:102AFC00ADFD002830D13021324B414A08A80CF0F2
:102B0C00B5FF05A80EF06DFE012208A905A80FF06F
:102B1C0084FD041E1ED101003C22149015A813F054
:102B2C00F3FD14A93F2205A80FF0C4FD05A80FF072
:102B3C00AEFD210014AB1A780A2A01D00D2A00D15F
:102B4C00197001340133402CF5D1324814A90FF01F
:102B5C00CBF9ECE630485FE720003049FEF776FD14
:102B6C00002802D100F0A0FEE1E620002C49FEF77F
:102B7C006DFD002815D1022E13D1686813F0D1FD1C
:102B8C00041E0AD101F046F9264B27481C700FF0A1
:102B9C00ABF9264B26481978D9E701F047F92548B7
:102BAC003AE721002448D2E7C98B0108CF8B0108F2
:102BBC00F28B0108F88B010800200240FD8B010804
:102BCC00328C010843850108608B01083A8C01089E
:102BDC00478C0108AA8C0108D4100020E65F002065
:102BEC00D65F00207C8C0108D98C0108E18C01088F
:102BFC00FE8C01082D8D0108558B0108318D0108C3
:102C0C003D8D01084C8D0108538D0108738D010811
:102C1C009B8D0108A78D0108B38D0108CB8D010890
:102C2C00D58D0108E6600020DE8D0108E7600020EC
:102C3C00058E01081A8E0108428E010810B5054B4D
:102C4C001B78002B02D000F0C7FE10BD02480FF01D
:102C5C004BF9FAE7505E0020268B010810B5054BA6
:102C6C001B78002B02D000F09FFE10BD02480FF025
:102C7C003BF9FAE7505E0020268B010810B5054B96
:102C8C001B78002B02D000F09FFE10BD02480FF005
:102C9C002BF9FAE7505E0020268B0108F0B50024D2
:102CAC003A2627008DB002AD0378002B1AD00A2CDF
:102CBC000ED10026134B029F0193019BF500ED18DA
:102CCC002968002912D139000F480FF00DF90BE0DB
:102CDC00310001C5013413F038FD0028E9D007702C
:102CEC000130E1E7002CE4D10DB0F0BD3800FEF767
:102CFC00ADFC002804D16B68601E03A99847F3E76C
:102D0C000136DAE728730108618E010870B50D00F1
:102D1C00B2B001283DDD2E492868FEF797FC00284B
:102D2C0037D169682B4B2C4A009106A830210CF046
:102D3C009DFE03A80EF055FD012206A903A80FF075
:102D4C006CFC041E41D10EF052FD6968060023484C
:102D5C000FF0CAF80B256D440122290003A80FF0CF
:102D6C00A9FC012817D0002C0AD069464822002360
:102D7C0089180B550B78232B02D00800FFF78EFF18
:102D8C0003A80FF084FC0EF032FD811B14480FF0E9
:102D9C00ABF832B070BD2B780A2B01D00D2B0ED1B5
:102DAC00002C0AD069464822002389180B550B7851
:102DBC00232B02D00800FFF771FF0024CAE77E2CFA
:102DCC00C8DC12AA13550134C4E706486968DEE76B
:102DDC007C8E010843850108558B0108808E010803
:102DEC00A18E0108B58E0108F0B5002689B00490BB
:102DFC000591059B9E4201D309B0F0BD049B9D1922
:102E0C005D4B1B78002B18D15C4C2A7823880A2A3E
:102E1C0001D00D2A0AD1002B05D000255848C554E5
:102E2C00FFF73CFF25800136B6B2E2E77E2BFAD8DD
:102E3C00591C21805249CA54F5E70EF0D8FC514B6D
:102E4C001860514B1F68514B1B680193504B1B680A
:102E5C000293029A019B9B1A80229201D41B9C42E2
:102E6C0000D91C00059B9B1B9C4200D91C00494BA4
:102E7C0000201A782B00049989190919994269D1F3
:102E8C00002801D0434B1A70434B29001B782200B9
:102E9C0003935803414BC019C01813F02CFC029B30
:102EAC003B4A191980233E4811600268364D3F1980
:102EBC0012192F6002609B019F4202D2019B8B4230
:102ECC001DD1039A06AB1A71DF8001225242D3172F
:102EDC00344807A90BF04CFF2D4A2C4B12681B6889
:102EEC009A420CD201212C4A137801330B401370F7
:102EFC00002301204042C1172B60FFF743FC8020C8
:102F0C00274D224B224F296801933A681B68800198
:102F1C0081422BD39A4222D301204042C117FFF7A2
:102F2C0031FC01204042C117FFF72CFC1E480FF06A
:102F3C00AEFB0022104B1D481A700EF0D5FF154B3E
:102F4C001B4819780EF0D0FFFFF7F0FBFFF7EEFBF4
:102F5C00361969E718780133424001208EE715488D
:102F6C000EF0C2FF2B68144A9B182B60019B3A6829
:102F7C001B689A42ECD3CFE7D35F00204C5E002055
:102F8C00525F0020B4100020D0100020C010002090
:102F9C00BC100020D25F0020D45F0020D410002091
:102FAC00B81000208C080020C4100020DC8E010812
:102FBC00E68E0108F48E010800E0FFFF10B5104CFE
:102FCC002378012B1BD10EF012FC0E4B1B68C01A80
:102FDC000D4B984213D90D480FF059FB00230C4AA6
:102FEC000C48237013800EF07FFF00200021FFF7A8
:102FFC00C9FB0028F9D0FFF799FBFFF797FB10BD31
:10300C00D35F0020B4100020B80B0000C4100020C7
:10301C004C5E0020FF8E0108002210B5034B0448C3
:10302C001A70044B1A800EF0DCFB10BDD35F00202D
:10303C00C41000204C5E0020054B064A1A60064B5B
:10304C00064A1A600022064B1A60064B1A6070473B
:10305C00E05000209A99193ED4500020000080BF07
:10306C00DC500020D8500020F0B587B00290081C2E
:10307C00584904920593FDF7FDFA574E01903568B7
:10308C000021281CFDF7F6F800282FD0534B01988F
:10309C001968FDF7C7FC041C400051494008FDF7B6
:1030AC00E9F8002822D0291C0298FDF7BBFC211C52
:1030BC00FDF7E0FA4B49041CFDF7DCF8002815D0AD
:1030CC00FC21201C8905FDF7C1F800280ED0464FC5
:1030DC0046493868FDF7B0FB4149051C201CFDF73B
:1030EC00ABFB011C281CFDF751F93860029B019ABF
:1030FC0033603A4B111C1A603B4B1B68181C039332
:10310C00FDF79AFB011C0298FDF78CFC3849051C55
:10311C00FDF7BAF800285BD13649281CFDF7A0F85A
:10312C00041E53D1344E3368281C191C029401938D
:10313C000134FDF795F8002845D0B768281C391CD8
:10314C00FDF7A2F800283ED0391C281CFDF76AFCBC
:10315C00391C051C0198FDF765FC011C281CFDF7AA
:10316C0089FA254E029BE4003419DB006468F618DA
:10317C00211C051C7068FDF755FC011C281CFDF773
:10318C005BFB211CFDF702F9041C1C4D00212E6871
:10319C00301CFDF75BF800280DD11949201CFDF7F8
:1031AC004BFB1849041C301CFDF746FB011C201C72
:1031BC00FDF7ECF8041C049B039A1C60059B2C6027
:1031CC001A6007B0F0BD08360C2CACD10024DCE73B
:1031DC000D4CDAE700007A44DC500020D850002077
:1031EC00CDCC4C3E0AD7A33CE0500020CDCC4C3F7C
:1031FC006666864033335340D8730108D4500020A0
:10320C00CDCC4C3D3333733F0000C84230B589B050
:10321C0049BA01AD04002980FEF718FC021E17D133
:10322C0069460D4B033118689B880C700291012183
:10323C00039169460A7402320A7702A9059506922F
:10324C000EF0EEFA0400FEF70FFC200009B030BDC2
:10325C002E246442F9E7C046EC50002030B589B00A
:10326C0005006C460A4B073418689B88257002943D
:10327C0001246D46069207220394002405912A77B7
:10328C0002A9053A2C740EF0CBFA09B030BDC04639
:10329C00EC50002030B589B004006A460A4B073266
:1032AC0018689B881470029201226D4600240392C8
:1032BC000692063205912A7702A9053A2C740EF073
:1032CC00AFFA09B030BDC046EC500020F0B58FB05D
:1032DC00039004910592FEF7B9FB002838D1012721
:1032EC001D4B07AE1A6808AC01921B790896029325
:1032FC00039B0997337006AB033320720B930723A0
:10330C000C97022223752100029B01980EF088FA7B
:10331C00051E18D106ABD978049A0B000498934378
:10332C00059A0240134399420DD073700223039AFD
:10333C000993327008963A0023722100029B01987F
:10334C000EF06EFA0500FEF78FFB28000FB0F0BDF3
:10335C002E256D42F9E7C046EC50002030B585B003
:10336C0005000C00FEF772FB002813D16A460B4BCC
:10337C0001A918689B8854701570019202224A604A
:10338C000A72013A0EF04CFA0400FEF76DFB2000B5
:10339C0005B030BD2E246442F9E7C046EC50002045
:1033AC008022F0B5110097B004002E20FFF78EFF9D
:1033BC00FEF74CFB0090002800D0A2E009AD0722DC
:1033CC0029001B20FFF74AFF061E0CD10C223120CE
:1033DC000BA9FFF743FF061E05D121000F202C314E
:1033EC00FFF758FF0600FEF73FFB002E00DA8CE0DB
:1033FC006B7804932B88238523006A792A331A70FF
:10340C00AA790BAD5A70AB886888DBBA05936B89C7
:10341C00C0BADBBA0693FDF7B9FC071C2888C0BA02
:10342C00FDF7B4FC3A4B3B4D1A783B4E0290002A08
:10343C0042D000222F6030601A700598FDF7A6FC70
:10344C003649FDF717F92060071C0698FDF79EFC1E
:10345C003249FDF70FF929683668E160A6606060B3
:10346C00FDF7EAF9311C2061381CFDF7E5F90EA9CE
:10347C000A002B4B606161CB61C261CB61C221CB75
:10348C0021C22500049B18355B099B005B58254A1B
:10349C00102128000CF0EAFA8422293423785201F6
:1034AC00DB061B0FDA40D20703D528001E49FEF7B6
:1034BC00D7F8009817B0F0BDFE201C4B80051B6898
:1034CC00191C0193FDF7AEFA29680390FDF7B4F9C6
:1034DC00391C07900198FDF7AFF9011C0798FCF710
:1034EC0055FF316828600398FDF7A6F90299071C6F
:1034FC000198FDF7A1F9011C381CFCF747FF30605F
:10350C009BE72E235B420093D3E70523FAE7C046E3
:10351C0038070020E8500020E450002000007A44D6
:10352C0028700108588B0108EF87010890010020D2
:10353C00F0B591B00D000290FEF788FA071E3DD150
:10354C00302204A9FFF78AFE0400FEF78DFA002C46
:10355C0037DB29001C4A02980CF088FA3E00040064
:10356C00029B1A4918192B1B039304ABF35C2F2EE7
:10357C0000D017490091174A291B0CF077FA002844
:10358C0006DD2B1B834203D901362418302EE7D1DC
:10359C00114B2D1B1B78114E0393029B1C19104BC6
:1035AC001868FDF773FC320000900191039B290011
:1035BC0020000CF05BFA380011B0F0BD2E277F42D2
:1035CC00F9E70527FBE7C046898F01088D950108AF
:1035DC00878F0108A48F010839070020A98F0108E3
:1035EC009001002010B5040012F0B8FC002825D082
:1035FC006B22144B07219A80102000221C60FFF7CD
:10360C0065FE202213201100FFF760FE102212200D
:10361C001100FFF75BFE202222211420FFF756FE3B
:10362C00402100221120FFF751FEFA2040000EF03D
:10363C000EF980212E20FFF791FE10BD1320404281
:10364C00FBE7C046EC500020084A10B5031C904222
:10365C0000D2131C98B2064BFA21C018FCF782FD5D
:10366C003F21C2B20020FFF731FE10BDC40900009B
:10367C003CF6FFFFAF2210B5031C5201904200D95B
:10368C00131CAF2299B21201914200D2131C98B2B2
:10369C00044B0A21C018FCF765FD81B20B20FFF723
:1036AC00B5FD10BD10F5FFFF73B50400FEF7CEF9A4
:1036BC00002802D00520404276BD01AE0222310026
:1036CC000B20FFF7CBFD0500FEF7CEF9002DF1D155
:1036DC000A233288D2BA5343AF2212019B1818190D
:1036EC00064B984200DD1800E1231B01984200DADA
:1036FC00180080B2FFF7BEFFDEE7C046E02E0000E8
:10370C0073B500236A46D371224B1B78002B3DD036
:10371C000EF08BF8012216201100FFF7D7FD642064
:10372C000EF083F81E25402664200EF07EF8FEF77E
:10373C008DF9002809D0013D002DF5D12A00012179
:10374C001620FFF7C3FD742421E06B461320D91D0E
:10375C00FFF7A0FD0400FEF787F9002CEBD16B46B8
:10376C00DB793342E7D0220040211220FFF7AEFD77
:10377C00FA2040000EF059F801220F201100FFF73B
:10378C00A5FD05480EF0B0FB200076BD0124644277
:10379C00FAE7C04639070020C28F0108014B1870A8
:1037AC007047C04639070020024A137859424B41F2
:1037BC00137070473907002010B586B0FEF746F934
:1037CC00002826D16B461230D91DFFF763FD002867
:1037DC001AD16B463022DB7902AC5A406B46DA7157
:1037EC000D4B122118689B8862700222217003A96C
:1037FC000A724A60013A03940EF012F80400FEF7C4
:10380C0033F9200006B010BDFEF72EF905246442F2
:10381C00F7E72E24FBE7C046EC50002010B50A4910
:10382C00041CFCF713FD002809D1FE21201C89057E
:10383C00FCF720FD002804D1044B1C6010BD024C89
:10384C00FAE7FE24A405F7E7CDCCCC3D900100208F
:10385C000300F0B518338DB00A930400006916000C
:10386C000D00FDF713FB08900991E068FDF70EFBC6
:10387C0006900791A068FDF709FB0490059160681C
:10388C00FDF704FB029003912068FDF7FFFA054F4A
:10389C00009001913A00310028000CF0E7F80DB0CF
:1038AC00F0BDC046EB8F0108FA21F0B5314889B064
:1038BC000901FEF743F9002512F0EEFD0A22002360
:1038CC00FCF72AFDFA262C0001270190B60003A96B
:1038DC00294800F0EBFC431E984103A92418274803
:1038EC0000F0E4FC431E984103A92418244800F07E
:1038FC00DDFC431E984103A92418224800F0D6FC95
:10390C00431E9841204B214A6B43FB4124189342A0
:10391C0001D80BF075F90135B542D8D112F0BCFDC8
:10392C000A220023FCF7F8FC019BC01AFDF772FA7F
:10393C001749FCF79FFE011C051C1648FCF79AFE64
:10394C00061C1548FEF7FAF8281CFDF79FFA020032
:10395C000B001248FEF7F2F8301CFDF797FA020044
:10396C000B000F48FEF7EAF821000E48FEF7E6F8C8
:10397C0009B0F0BD6C900108981000208010002058
:10398C006810002050100020295C8FC251B81E0511
:10399C0000007A4400007A45A2900108C690010804
:1039AC00E39001080891010810B50248FEF7C6F82B
:1039BC0010BDC0462091010810B50248FEF7BEF8B4
:1039CC0010BDC0464191010810B50248FEF7B6F88B
:1039DC0010BDC0465C91010810B50248FEF7AEF868
:1039EC0010BDC0467491010810B580210248090130
:1039FC0083685B69984710BD186D010810B50648BF
:103A0C00064C0269816813682340136080220B689E
:103A1C0092020B21984710BD186D0108FFF7FFFFAC
:103A2C0070B505000C00032805D10D4E300012F0C6
:103A3C0095FA002812D129000A480CE0615DB368A0
:103A4C0030005B68984701352000FDF711FEA84255
:103A5C00F4D821000448FEF771F870BD0025F3E797
:103A6C00686D0108A49101088D910108F0B504005E
:103A7C000E00150085B0012807D11A4F380012F03E
:103A8C006DFA002823D105B0F0BD174F380012F0A5
:103A9C0065FA0028F7D06A4600231370022301A9A7
:103AAC003800557001920B724B60BB6801229F6805
:103ABC003300B84700280FD133002A0021000B48EF
:103ACC00FEF73CF8012CDED1FDF7CEFFDBE7FDF76E
:103ADC00BDFF0028DFD0D6E721000548FEF72EF801
:103AEC00F0E7C046E06D0108CC6D0108CA910108F1
:103AFC00F991010870B50D0011490400FDF7A6FD00
:103B0C00002818D1FFF77AFF0E4803691B681B05C4
:103B1C0004D5002D04D083681B6903E0002DFAD076
:103B2C008368DB688021090198472A002100064838
:103B3C00FEF704F870BD21000448FDF7FFFFF9E71C
:103B4C009F8A0108186D0108179201082A92010832
:103B5C0073B50D0017490400FDF778FD002827D137
:103B6C00FFF74CFF144E002D07D1300012F0DEFC95
:103B7C0012482100FDF7E2FF19E0FA230120690049
:103B8C009B00994202D81800FCF7A6FA0A220023DF
:103B9C000021FDF7E7FB02000B00009001913000C3
:103BAC000BF0E8FD2A0021000548FDF7C7FF73BDA7
:103BBC000448DEE79F8A0108B807002053920108E9
:103BCC006B92010887920108F0B5060089B0254F69
:103BDC00380012F0C3F9002804D12348FDF7AEFFDA
:103BEC0009B0F0BD6B46002103AC142220009D1CD3
:103BFC00298012F089FD02233000E3601B490A334F
:103C0C00A5602374FDF722FD002814D180239B00AE
:103C1C0063608123DB000193092301A98B80BE68BB
:103C2C003800336898472100380073689847011EA4
:103C3C0006D00F4801E031000E48FDF77FFFCFE7BB
:103C4C000023E85EFDF7A2F80B49FCF713FD0B49C6
:103C5C00FCF7F2FDFDF71AF902000B000848FDF71E
:103C6C006DFFBDE7A46D0108BD920108308A010803
:103C7C0018930108D992010800F07F4500004040DC
:103C8C00FB92010810B5FDF701F902000B00024888
:103C9C00FDF754FF10BDC0463A93010810B5024819
:103CAC00FDF74CFF10BDC0465293010810B50248F9
:103CBC00FDF744FF10BDC0466C93010810B50248D7
:103CCC00FDF73CFF10BDC0467F93010810B50248BC
:103CDC00FDF734FF10BDC046939301087FB5041C5B
:103CEC00174D280012F03AF9002824D01549201C51
:103CFC00FCF7C0FC1449FCF79FFDFDF75CFB694623
:103D0C00C3B21A091B010A704B706A46022301A93F
:103D1C0001920B724B60AB6801229E6828000D2348
:103D2C00B047002808D1201CFDF7B0F802000B00AA
:103D3C000648FDF703FF7FBD0548FDF7FFFEFAE7D8
:103D4C00CC6D01080000404000007F43A99301089E
:103D5C00DC930108F0B50400214E87B0012800D097
:103D6C00204E300012F0FAF80190002810D02100FB
:103D7C001D48FDF7E3FE002202ABDA70012C09D1DD
:103D8C00FDF764FE002805D021001848FDF7D6FE8B
:103D9C0007B0F0BD00230125009302AB033303935E
:103DAC00012303A94B6002330B72B2683000926896
:103DBC00ABB217000122B847002805D129000C48E6
:103DCC00FDF7BCFE019B00930135802DE5D1012C44
:103DDC0001D1FDF749FE009B002BD9D1D4E7C04699
:103DEC00E06D0108CC6D0108F993010814940108E9
:103DFC002E94010810B501240548026981681368E6
:103E0C00A3431360C0220B68D2020021984710BD57
:103E1C00F06C010810B5044812F0A0F8002801D08D
:103E2C00FFF7E8FF10BDC046F06C010810B5024862
:103E3C000EF05AF810BDC04647940108010010B5A9
:103E4C00002805D00022002303480AF091FF10BD82
:103E5C0016204042FBE7C046BC080020F0B589B0F4
:103E6C0003A90A001B4B31CB31C2002403CB03C284
:103E7C00A30003AA9D58286812F070F8002825D0DA
:103E8C008023EF885B023B43297928680193012644
:103E9C0083688E409C4603691D6800932A000123A9
:103EAC00B2431F4201D032002A43009B1A60634682
:103EBC00019A1B689847002806DB0134052CD7D1E2
:103ECC00FF220020044B1A7009B0F0BD13204042B1
:103EDC00FAE7C046487001083A070020024B1870F8
:103EEC0059709A707047C046E860002013B501AC59
:103EFC0003222000054912F0FEFB62782078A3789B
:103F0C0012021B041043184316BDC046E860002083
:103F1C00F0B53C4889B00DF050FDC3B204003A48EE
:103F2C0003930DF04AFDC3B20500384804930DF01D
:103F3C0044FDC3B20600364805930DF03EFDC3B2F6
:103F4C000700344806930DF038FDC2B221000792E9
:103F5C00FF22030011401540EC00080120431640DD
:103F6C0018431740B4000443780004432A48E4B2D1
:103F7C00007884460020A44532D0134001932A00D7
:103F8C003300264800970DF0AFFF039B002B04D0A5
:103F9C00234B01201B78002B20D0049B002B04D03A
:103FAC00204B02201B78002B18D0059B002B04D033
:103FBC001D4B03201B78002B10D0069B002B04D02C
:103FCC001A4B04201B78002B08D00020079B83423F
:103FDC0004D0174B1B78834200D105300E4B1C705C
:103FEC000F4B039A1A700F4B049A1A700E4B059ACA
:103FFC001A700E4B069A1A700D4B079A1A7009B06C
:10400C00F0BDC04660740108587401085074010872
:10401C0048740108407401083A0700206E940108A6
:10402C00EF600020EE600020ED600020EC600020CE
:10403C00EB6000200300F7B519790068DB88826813
:10404C0094460269DC0715D4B0246403234301278A
:10405C003D000A4C16681C408D4001943400AC4362
:10406C003B4201D034002C43634614601B68019A18
:10407C009847F7BDD02464036340E8E7FFFFEFFFE8
:10408C0010B50F4C200011F069FF002802D113204D
:10409C00404210BD200011F061FF0028F7D0200035
:1040AC0011F05CFF0028F2D00648FFF7C3FF06486A
:1040BC00FFF7C0FF0548FFF7BDFF0020E9E7C0464A
:1040CC00046D0108787401087074010868740108A3
:1040DC00044B1870044B1970044B1A700022044BDB
:1040EC001A7070473D0700203C0700203B0700205A
:1040FC00F4600020084B10B5187000280BD000217C
:10410C0006480DF06EFC002105480DF06AFC0021FC
:10411C0004480DF066FC10BDF460002078740108B2
:10412C007074010868740108014B18707047C04620
:10413C00F160002070B5244C23780133DBB2632B83
:10414C0000D900232370214B1B78002B3AD1204A35
:10415C001178CBB2002903D11E4B197801234B40A7
:10416C001178CEB2002902D11A490E78F6B2127823
:10417C00D5B2002A02D1184A1578EDB200218B4233
:10418C0005D0164B21781B78994289414942144835
:10419C000DF027FC00218E4205D0124B21781B78A4
:1041AC0099428941494210480DF01BFC00218D4277
:1041BC0005D00E4B21781B789942894149420C4815
:1041CC000DF00FFC70BDC046F0600020F4600020C4
:1041DC00F1600020F2600020F36000203D07002019
:1041EC00787401083C070020707401083B0700201C
:1041FC006874010810B5064C2478047005480078E2
:10420C000870054909781170044A12781A7010BDAB
:10421C003D0700203C0700203B070020F4600020F5
:10422C0010B504000800002C36D0002934D0A3604F
:10423C00002321602271636111F090FE00282ED0C2
:10424C0080220021200012020DF012FC002822DB3B
:10425C00002132200AF056FDE02102988905FCF776
:10426C00EBFAA168E060FCF7E7FA011C0D48FCF7DB
:10427C0001FAFDF7A0F882B20521200022820DF090
:10428C00F7FB002807DBC0235B0100212000064A56
:10429C0063820DF0EDFB10BD16204042FBE71320AE
:1042AC00FBE7C046ACC5273D9F390000F7B56B4610
:1042BC009E1C0C003200022105000DF0ADFB002805
:1042CC0002DA05204042FEBD01AF3A000121280070
:1042DC000DF0A2FB0028F4DB6B46042128009A1D8C
:1042EC000DF09AFB0028ECDB01233088034023748B
:1042FC00C008FCF74BFD1549FCF79EFA2060061C24
:10430C000023F85EFCF742FD1149FCF795FA6B4669
:10431C0060600620185EFCF739FDE968FCF78CFA42
:10432C000C49FCF789FA6969FCF77CFB0021051C38
:10433C00FBF78CFF002800D00025A560291C301C41
:10434C00FCF77AFAE0600020BDE7C0466F12833BB1
:10435C000AD7233C00007A4410B5134B1A78002A74
:10436C0020D1012420001C70FFF7C4FE20000DF0AA
:10437C00FAFA0E4812F0DAF821000D480DF09EFB07
:10438C0021000C480DF09AFB21000B480DF096FB18
:10439C0021000A480DF092FB09480DF0A5FD0948D3
:1043AC000DF0A2FD10BDC046F56000208007002076
:1043BC009810002080100020681000205010002061
:1043CC00A0940108D394010837B5164D2B78002B17
:1043DC0026D000200DF0C7FAFA200024002140005E
:1043EC000AF090FC20002C70FFF784FE642200235E
:1043FC000D48009201930BF0BDF921000B480DF014
:10440C005DFB21000A480DF059FB210009480DF015
:10441C0055FB210008480DF051FB08480DF064FDD8
:10442C0037BDC046F56000208007002098100020A2
:10443C008010002068100020501000200B950108FF
:10444C0010B5024B1B68984710BDC0469401002064
:10445C0030B585B004000D0010220021684612F022
:10446C0053F96A4602239370044B2A0021006846D4
:10447C0001930BF011FF05B030BDC0464D44000850
:10448C00F7B504000D001E0001920AF059FC030060
:10449C0012F04CFB054F32003B5001992800A0470D
:1044AC0012F044FB385801F0A7FBC046080000008E
:1044BC0010B50400EFF3108372B606F00FF820006D
:1044CC0001F08CFB02480DF00FFD01F0B7FCFCE78E
:1044DC002595010801210A4B0A4A82B01A600A4B41
:1044EC0000201A6C0A431A641B6C084A0B40019397
:1044FC00019BC0231168DB000B43136002B07047B3
:10450C002C0700200024F4000010024000000140A1
:10451C000221034A002053688B4353607047C04606
:10452C0000580140F0B58668476887B0BB1B040093
:10453C000593C3686420390070430293FBF7CCFDEC
:10454C00074D0190009733002800059A21680DF063
:10455C00CBFCA269E36903480DF0C6FC07B0F0BDC3
:10456C004E9501088E9501080300F0B5AC3395B05B
:10457C0005000F001E6811F051FD041E02D00378D7
:10458C00002B06D12B000B21194A01A80BF06EFA57
:10459C0001AC6946280011F055FD021E05D0210022
:1045AC0014480DF0A1FC00230093009B0B962800EF
:1045BC00F61A0EA90A940C9611F052FD002810D18F
:1045CC0004A811F059FD00280ED10E980F99642201
:1045DC000023FCF7C7FE049A059BFBF79DFE0D908C
:1045EC0002E004A811F048FD0AA8B84715B0F0BDC8
:1045FC00B3950108B695010870B580250D4B0100E7
:10460C0086B018002D0109F039FF05AA29000A48C7
:10461C0011F00AFD021E0BD16424059B0749EE1A0A
:10462C007443E40A06480294019500960DF05CFC74
:10463C0006B070BD7545000810790020DE950108A4
:10464C00E295010810B503480DF04EFC0248FFF747
:10465C00D3FF10BD1896010831450008014B0360CB
:10466C00002070478074010870B5114B0D001C6858
:10467C00002C1BD00F4B1A680023934202DB022044
:10468C00404212E0210026781031864202D00C0004
:10469C000133F2E7E068002801D11320F0E711F0B4
:1046AC005DFC0028F9D000202C6070BD0D20E7E7E0
:1046BC009801002080740108F7B504000D00170064
:1046CC001E00002802D10E204042FEBD0029FAD067
:1046DC00002AF8D000930023080001930DF0F8FC99
:1046EC0001003000FBF734FD0029ECD16A462800AC
:1046FC0013490EF0E8FC019B002BE4D0089A0999B1
:10470C0052189342DFD328000DF0E2FC0100089808
:10471C00FBF71EFD0029D6D1089BE5606361099B60
:10472C00276066602161A160002B03D1019B089A70
:10473C009B1A0993099B0020A3610A9BE361C4E7C0
:10474C00E9200108F7B5FF270D4B0E4C5E6A0E4BA6
:10475C000194019CA34202D3862040420CE05D6888
:10476C00B5420AD31C69002C07D0AD78AC468588BD
:10477C003D40AC4501D1A047FEBD2433E9E7C0461E
:10478C00F4500020040A0020E0090020F8B50500D0
:10479C000E001700114C124B9C4202D38620404253
:1047AC0012E0104B62685B6A9A4215D3A369002B26
:1047BC0012D09178FF208C46A98801408C4504D1F9
:1047CC003A00310028009847F8BD5279012A03D1EC
:1047DC003A003100280098472434DCE7E009002037
:1047EC00040A0020F4500020F8B505000E00170054
:1047FC00094C0A4B9C4202D3862040420AE0636972
:10480C00002B01D12434F4E73A00310028009847FA
:10481C000028F7D1F8BDC046E0090020040A0020AA
:10482C0010B5040002F038FC0300783301D00028E6
:10483C0007D120000DF0EEFC024A136883430020E0
:10484C00136010BDB851002010B508220021024899
:10485C0011F05AFF10BDC046AF51002030B50A4BC5
:10486C000A4CA34201D3002030BD1A7F196AD20032
:10487C005218914201D12433F3E708310D1F2D78E2
:10488C008542F6D10120EFE7E0090020040A002060
:10489C0010B5084C23785B069B0F0A339B001B5901
:1048AC00181E05D02000044A04499847C043C00F85
:1048BC0010BDC046F4500020FC50002004510020D4
:1048CC00F0B585B004000191042813D0012828D13B
:1048DC00204B1B78002B24D000F0E4FD1E4E1F4B08
:1048EC009E421BD20025336A0293337FAB4204D81D
:1048FC002436F4E7FFF7A8FFEAE7029BEF00DF1985
:10490C00387902F0C9FB039038790DF083FC144A16
:10491C00136883431360039B002B0FDA00220D4BAB
:10492C001A700D4D0D4B9D420BD30E4B1B6A002B79
:10493C0002D020000199984705B0F0BD0135EDB2C9
:10494C00D3E7EB68002B03D021002800019A98478D
:10495C002435E7E7AD510020E0090020040A0020CF
:10496C00B8510020F4500020F7B56B46C4B2DD1DE1
:10497C000E002C70630609D02000FFF76FFF002893
:10498C0011D000200C4B1B7883420CD020000B4F15
:10499C00002E09D002F030FBFB69002B02D029005D
:1049AC00082098470120FEBD02F03CFBFB69002B60
:1049BC00F8D029000920F4E7AE510020F450002073
:1049CC0073B56B4686781E70437902791B021343CC
:1049DC006A4653800322C378300013406A46137131
:1049EC000DF018FC174B05001B68174C03420CD03C
:1049FC00300000F03DFD3000FFF712FF11F008FB16
:104A0C00002802D1963011F059FC684602F0AAFA3F
:104A1C000300783303D0002801D0002076BD6B460C
:104A2C00187802F015FB0300783301D00028F4D17C
:104A3C0023000120B933C434187023682B4323603E
:104A4C00ECE7C046B8510020F4500020F0B5A94F57
:104A5C000600BB690C00150085B0002B1FD1317806
:104A6C00CB06DB0E012B00D193E0022B00D103E12E
:104A7C00002B27D12A6870787F2938D9062813D0C3
:104A8C0008282FD000281DD1012350701370C33774
:104A9C00397899400B4313700223236002E0984746
:104AAC000028DCD100200FE07088010A0A1FCEB26A
:104ABC00012A07D9072905D8C2B201927A6A177858
:104ACC00002F03D11620404205B0F0BD5078B04203
:104ADC0004D10198984200D102E10133D219EEE7DA
:104AEC001378DAE7BA373B7813700123D5E701382E
:104AFC000828E7D8FBF7DCFA40E647E605E6E6E6E9
:104B0C000B00B07802F0E8F90028CBD0DAE7738814
:104B1C007C6A002B2CD1FFF797FE39007388BA31D1
:104B2C000B70FB69002BBDD003209847BAE7637864
:104B3C00042B09D0052B11D0022B07D16579738872
:104B4C00AB4203D1012001E0E37801932378E41810
:104B5C002378002BEBD10028B4D0DCE77388AB4270
:104B6C00F4D1019B002BF1D12000FFF729FFEDE7D9
:104B7C00FF2500200195EBE77388012BA2D10022C1
:104B8C00C3373A708EE77388012B9BD1C3373B70C8
:104B9C0088E72B6802933B00BA331B78002B00D1BB
:104BAC0090E7B388DAB294467A6A01921578002DB0
:104BBC0000D187E750780390022803D11079604523
:104BCC0000D999E05219F1E7029B1A705A70039BB5
:104BDC0063E701998A18019298E00B2A00D071E7DB
:104BEC000024FF25039402950AE0019B5B78042BBB
:104BFC0014D0052B28D0019B019A1B78D318019354
:104C0C00019B1B78002BF0D1FB69002B02D00720F5
:104C1C0003999847002C00D044E753E7019BDB78BD
:104C2C000293019B9D78B3889D42E4D17388029ACC
:104C3C009A42E0D1019B00240393072DDBD87B190A
:104C4C00BB331A700134D6E7B388AB42D3D1B378F7
:104C5C00029A93420BD0019B9C78200000F008FC38
:104C6C002000FFF7DDFD43425841C4B2C3E7019871
:104C7C00FFF7A6FE0400BEE773787F2919D9002B35
:104C8C0000D01FE736792D6873060AD03000FFF785
:104C9C00E5FD002800D115E7BA373B78002B00D191
:104CAC0010E7290030000EF023F800236B7002335C
:104CBC00F3E6012B09D0032B00D003E77388002BFC
:104CCC0000D0FFE60121B08804E07188002900D0F3
:104CDC00F8E6B088FFF748FE002800D0E2E6F1E6DF
:104CEC002A60022900D0FBE6D37891781B020B4393
:104CFC00D3E6C046F450002072787F2900D86CE7C8
:104D0C00002A00D160E70A2A00D0DBE6019A12786B
:104D1C00002A00D1D6E601994978042900D058E739
:104D2C00019989788B4200D053E70022072B02D8D7
:104D3C00FB18BB331A78029B1A70D6E613B5154CC8
:104D4C00237D002B1ED1E26801AB8020A16801926B
:104D5C000DF071FA019AA3689B18A360E3689B1A83
:104D6C00E3600ED1002A0CD02069E388834208DD71
:104D7C002300C8331978FBF73FFA002901D101232E
:104D8C00237513BD002180200B000A00217502F051
:104D9C0097F9F6E7F4500020002330B585B00D00EC
:104DAC000193984257D1994236D10B000822280022
:104DBC0002A90DF0ACFF002804DA802002F01CF9E7
:104DCC0005B030BD6B46294C029ADB892260039AF0
:104DDC0025756260264A2561A2606A46127AE560F2
:104DEC0052B2002A0BDB802B04D9802002F004F98C
:104DFC000020E3E7002B02D02361E360E0E7FFF73C
:104E0C0047FD0028D9D02269E388934200DD1300C6
:104E1C00E360FFF793FFD3E7144C01ABE268A168A2
:104E2C00002A05DC02000DF072FF0028C8DAC4E786
:104E3C000DF06DFF0028D8DB019AA3689B18A360C6
:104E4C00E3689B1AE360BBD1094BA360FFF720FD1D
:104E5C000028DED1B1E78028B2D1044BDA68002AF1
:104E6C00D7D11B7D002BD4D1AAE7C046F45000202B
:104E7C002C510020054B064A58629A62054A0020C4
:104E8C00DA62054A1A63054A9A617047F4500020A9
:104E9C00594A000851470008F5470008994700088F
:104EAC0010B5084B1C78002C07D100F0D7F800285F
:104EBC0006D0FFF7DFFF200010BD78204042FBE753
:104ECC000120FBE7AC510020F0B5414D04006F6AA6
:104EDC0085B0404B0093009801225242D3170AF040
:104EEC0031F82B00B8331E78002E00D068E03A4819
:104EFC002C62E86101F0E8FF01F036FF041E2CDBA8
:104F0C0000F0F0FA041E28DB7B78012B5BD1FB79D7
:104F1C00002B58D02A00C832137002AA10005380FC
:104F2C001671167002F01EF8041E16DB802702ABF9
:104F3C0018001F7002F016F8041E0EDB274B300011
:104F4C00190001930DF0B9FE041E06DB380001991F
:104F5C000DF0B3FE224E041E0BDA009809F0B6FFDA
:104F6C00200005B0F0BD0024376A337FA3421CD863
:104F7C0024361C4B9E42F6D3002002F069F8041E26
:104F8C00EBDB2E000127C436336880203B433360B3
:104F9C0002F05EF8041EE0DB802332685B021343F0
:104FAC00B835002433602F70D7E7E300FB1818796D
:104FBC0019680DF082FE002807D10134E4B2D4E761
:104FCC0078246442C9E71624FBE70124F9E7C046BC
:104FDC00F450002078080020CD480008A54D0008AA
:104FEC00E0090020040A0020F0B58BB01122194909
:104FFC0005A811F080FB1022002101A811F084FB00
:10500C00154C12220021200011F07EFB102101A86A
:10501C0003F016FB00281ADD082800DA08200838EF
:10502C0001AB1B180F2021000022844614276D466B
:10503C00985CED190609AE5D654628406D46ED1984
:10504C00285C01320E7048700231082AEED1200023
:10505C000BB0F0BD29960108F6600020F0B56F4C3E
:10506C0089B06F4B019300231D00039302930093AF
:10507C002378002B05D16B4B02349C42F1D167484D
:10508C0036E0607805281ED8FBF71CF89003C59015
:10509C00203E002206AB1A70402306A908004B8064
:1050AC000A710DF016FE00280AD0082306AA10007B
:1050BC0053800DF00EFE002802D0002206AB5A8061
:1050CC0006AB5B88E3712378E418D1E7E378002B17
:1050DC00F9D1A378002B0DD0029B0133DBB20293E4
:1050EC00F1E76A68944208D024359D42F9D3002038
:1050FC0009B0F0BD4C4D4D4BF7E7AB68002BEBD036
:10510C00200002999847E7E7002DF0D000272B7F6D
:10511C009F42ECD22A6AFB00D3180493A2781B7925
:10512C009A4201D00137F2E701260322F3B205932C
:10513C00E378134006AA1371637922791B02134397
:10514C0006AA5380A3787F2B22D933000122103377
:10515C009A401300019A1A4224D18023059A1343D2
:10516C0006AA100013700DF0B4FD00281AD106AB7E
:10517C001B78049AA37013715BB2002B0FDA012316
:10518C00059F1037FFB2BB40019A1A4301929AE770
:10519C000123B340019A1A4204D1F3B2E0E7012390
:1051AC00B340F1E70136102EBFD1BBE7039B032BB5
:1051BC0019D1FFF719FF061E08D0FCF759FA0200A7
:1051CC00102803D13100A01C11F095FA2378E218B5
:1051DC005B08E318911E121B032A15D5039B0133A0
:1051EC00DBB203936FE7039B002BEFD1009B002BEB
:1051FC0000D17CE7009AE31A93709BB21B0AD37020
:10520C001300029A1A71E9E700224A701A78013BDE
:10521C000A700A00DEE7009455E7C0463409002006
:10522C0001000100DF090020E0090020040A002031
:10523C00094B00211A0010B51C78844206D15C6819
:10524C00002C03D048234B43D01810BD01314833F8
:10525C000429F1D10020F8E7C0510020F0B504007A
:10526C00343C63680500267885B010330AD1616C34
:10527C00E2688B072FD5002A18D10423194213D0CA
:10528C0000236360636810330CD023696769009353
:10529C00A369019310F0BCFE00283FD029002548DB
:1052AC0011F0CBF805B0F0BD0B4363643000A1687E
:1052BC0003AB0CF0C0FF002802D016235B42E0E7E2
:1052CC00039AA3689B18A360E3689B1AE3602369A5
:1052DC009B182361D6E73000A16803AB01F040FFB7
:1052EC000028EAD1039FA368DB19A360E368DB1BEA
:1052FC00E3602369DB192361002FC1D030000DF06E
:10530C0015FD01003800FAF723FF0029B8D1E36836
:10531C00002BB5D0300001F055FFB3E760612800D9
:10532C00183809F087FE002FBCD03000019A009984
:10533C00B847B7E7800C00204B1E73B506000D0074
:10534C00012B0FD8FFF774FF041E0CD1012D09D1CE
:10535C00694601AB01223000033101F001FF019BD2
:10536C00002BF5D173BD10F053FE21003431002811
:10537C0001D0012D03D10800FFF770FFF2E70248BE
:10538C0011F05BF8EEE7C046800C0020F0B587B05A
:10539C0006000491029203930CF091FF00285CD15B
:1053AC00EFF3108372B6070005932D4B0193002287
:1053BC000023019809F062FE00280BD148237B439F
:1053CC00284AD41865682900103114D1019809F0C5
:1053DC0031FE07E0019B013748330193042FE6D1DE
:1053EC000C256D42059B002B02D162B6BFF36F8F6B
:1053FC00280007B0F0BD9E54049B2061A360029B63
:10540C003000E3600C9B6361039B63640D9BA361A1
:10541C0010235B4263600DF089FC00280CD0300037
:10542C000DF084FC01000298FAF792FE002903D0DB
:10543C000423626C13436364039B9B0708D54821C8
:10544C007943094B0948C91810F0F7FF0025C9E743
:10545C00300001F0B7FE0500C4E710256D42C7E728
:10546C00DC510020C0510020F4510020800C0020A1
:10547C0010B5EFF3108472B6FFF7DAFE011E09D0F7
:10548C004368103306D18C235B42436034310448AB
:10549C0010F0D3FF002C02D162B6BFF36F8F10BD9A
:1054AC00800C002070B500250C4CEFF3108672B602
:1054BC006368103307D18C2321005B42084863607A
:1054CC00343110F0BAFF002E02D162B6BFF36F8FE9
:1054DC0001354834042DE8D170BDC046C0510020C0
:1054EC00800C002070B500250126084C20000849CE
:1054FC0010F08BFF2000320031001838013510F00D
:10550C0044FF4834042DF1D1002070BDF45100202B
:10551C006952000870B506000D000179124814009C
:10552C000CF0ABFE00281BD0327873787F2A10D891
:10553C00202B03D0222B08D0862012E007222168D2
:10554C00103811F0D8F8002070BD7388093803703A
:10555C00F9E7212BF0D110381A3B20602B60F2E7D1
:10556C0013204042F0E7C046E0520020054B0100FA
:10557C0010B518000CF08EFE002802D0012307385D
:10558C00037010BDE052002010B5016901220B0020
:10559C004B331A700B68002B08D00B0049331B7867
:1055AC00002B03D00248083110F047FF10BDC04655
:1055BC00800C002010B5036901211A004A321170C9
:1055CC001A68002A08D0190048331B780831002BC0
:1055DC0002D0024810F031FF10BDC046800C0020F4
:1055EC00130070B514000D001100012248331A701D
:1055FC0023680831002B07D023004A331B78002B7B
:10560C0002D00D4810F019FF230090331B689A68E4
:10561C001B699A4206D1002D0DD121001831FA22B6
:10562C00920004E0210000221831002DF7D0002355
:10563C00014809F0ABFE70BD800C002070B5046908
:10564C0023009E331B78181E14D0230000209F3398
:10565C001B7883420ED1230048331870986C0CF0E1
:10566C007FFC21000500002200230348183109F0BB
:10567C008DFE280070BDC046800C0020030070B564
:10568C000025040048331D8007220949943011F08D
:10569C0032F8230020009C331D70013B1D70033336
:1056AC0029001D809D7040224C3011F02DF870BDEA
:1056BC008C7001080300F0B58C331B6804005B6828
:1056CC0085B01B6A1E7D30000CF0F9FD071E23D13E
:1056DC00230086331B78002B1ED08022A06FD200B3
:1056EC0003A90CF05CFC002816D0230030331F708B
:1056FC003F2303405A425341C51A2300183B0193E0
:10570C00064B039900932A0002233000FFF73EFE5C
:10571C002900A06F0CF05FFC05B0F0BDED55000842
:10572C0010B5046900222300A43318605A600B4A98
:10573C000433516800290DD15360136020000849CF
:10574C00083010F062FE20000649183010F081FE7F
:10575C00002010BD0B605360F0E7C046E052002003
:10576C00FB220108C156000830B50B000E4985B06C
:10577C00019180218902029101A90B810023046906
:10578C0042689D342370126A084D10790A220CF07D
:10579C0052FD2378002B05D10120013D10F0D0FBE8
:1057AC00002DF6D105B030BDA1200000A18601006E
:1057BC0037B56B460469DD1D2300002248331A708F
:1057CC002970230090330122290018680CF0C8FBC3
:1057DC00002803D110F01CFC002807D021000A225D
:1057EC0000231831064809F0D1FD37BD2300A13341
:1057FC001B78002BF2D000210A2009F083FAE0E795
:10580C00800C002073B505001400002924DD16005F
:10581C000A0021008C3630684C310CF0A1FB2300BF
:10582C00012249331A702368002B09D023004B3313
:10583C001B78002B04D021000F48083110F0FDFD1F
:10584C0033685A685969DB69521A9B1A3F2B03D883
:10585C000123A034237073BD23009E331B78002BCF
:10586C00F9D02100054B40220093280001234C3134
:10587C000194FFF78BFDEEE7800C00201158000817
:10588C001D4BF7B50F00010018000CF0EBFC041ECB
:10589C0023D005000368781E5E68A43D05281CD83B
:1058AC00FAF710FC1C1B031C2024A31F19780029D9
:1058BC0013D101221A70336A2A00187B5C3CFFF763
:1058CC00A1FF2178002908D1336A0A00187D0B4BFF
:1058DC00019500930223FFF759FDF7BD2800FFF750
:1058EC00CDFEFAE70123053C2370F6E7053C23784F
:1058FC00002BF2D00023F7E7E0520020ED55000812
:10590C0037B5012300258022064C0749200000955D
:10591C005B42D20009F0FEFC2000044908F0ECFDCB
:10592C0028003EBD800C0020107500204896010810
:10593C00F7B50090FBF79CFE0500144E0122524275
:10594C00D317300009F0FEFA114B1C689C4200D1B1
:10595C0000245B680193002C04D1300009F0B6FAE6
:10596C002000FEBDA7683800FBF782FEA84206D1D6
:10597C002A003900009810F0F6FE0028EDD0019BAB
:10598C009C4201D02468E6E70024E6E7500800209A
:10599C00F401002070B504000F4D01225242D317C0
:1059AC00280009F0CFFA002C06D1162464422800F6
:1059BC0009F08CFA200070BDA0680028F5D0FFF724
:1059CC00B7FF0028F1D1054B5A6823606260146060
:1059DC005C600400EBE7C04650080020F401002096
:1059EC0070B51D00084B0400C0182B000CF0CEFB4A
:1059FC000600002D06D080256D0160590CF021FBAE
:105A0C0000236351300070BD041000007FB580236B
:105A1C0005005B010800E918FEF726FE041E12D1F2
:105A2C0080267601A8590CF04AFBAB59074A029420
:105A3C000100A8189A6801925B682A000093330051
:105A4C00FEF73AFE0400200004B070BD0410000004
:105A5C0030BFFDE7F7B5134B134D019058190E00ED
:105A6C00290001380093FAF737FB104F104C4543CF
:105A7C00381921000138FAF72FFB44436419361BFF
:105A8C00009A30000B4910F036FE70193A000021D4
:105A9C0010F03AFE2000019B083EB8331E6008301F
:105AAC00FEBDC04600000000010000000800000020
:105ABC000400000024700108064B9968D8698842DC
:105ACC0002D00549054A0A6001B508F025FD03BC62
